{
  "address": "0x2F1B7C76849772bAF01d1C49c076916852eEa97e",
  "abi": [
    {
      "inputs": [
        {
          "internalType": "address",
          "name": "_nftContract",
          "type": "address"
        }
      ],
      "stateMutability": "nonpayable",
      "type": "constructor"
    },
    {
      "anonymous": false,
      "inputs": [
        {
          "indexed": true,
          "internalType": "uint256",
          "name": "tokenId",
          "type": "uint256"
        },
        {
          "indexed": true,
          "internalType": "address",
          "name": "seller",
          "type": "address"
        },
        {
          "indexed": false,
          "internalType": "uint256",
          "name": "price",
          "type": "uint256"
        }
      ],
      "name": "NFTListed",
      "type": "event"
    },
    {
      "anonymous": false,
      "inputs": [
        {
          "indexed": true,
          "internalType": "uint256",
          "name": "tokenId",
          "type": "uint256"
        },
        {
          "indexed": true,
          "internalType": "address",
          "name": "seller",
          "type": "address"
        },
        {
          "indexed": true,
          "internalType": "address",
          "name": "buyer",
          "type": "address"
        },
        {
          "indexed": false,
          "internalType": "uint256",
          "name": "price",
          "type": "uint256"
        },
        {
          "indexed": false,
          "internalType": "uint256",
          "name": "fee",
          "type": "uint256"
        }
      ],
      "name": "NFTSold",
      "type": "event"
    },
    {
      "anonymous": false,
      "inputs": [
        {
          "indexed": true,
          "internalType": "uint256",
          "name": "tokenId",
          "type": "uint256"
        }
      ],
      "name": "NFTUnlisted",
      "type": "event"
    },
    {
      "anonymous": false,
      "inputs": [
        {
          "indexed": true,
          "internalType": "address",
          "name": "previousOwner",
          "type": "address"
        },
        {
          "indexed": true,
          "internalType": "address",
          "name": "newOwner",
          "type": "address"
        }
      ],
      "name": "OwnershipTransferred",
      "type": "event"
    },
    {
      "inputs": [
        {
          "internalType": "uint256",
          "name": "_tokenId",
          "type": "uint256"
        }
      ],
      "name": "buyNFT",
      "outputs": [],
      "stateMutability": "payable",
      "type": "function"
    },
    {
      "inputs": [],
      "name": "defaultFee",
      "outputs": [
        {
          "internalType": "uint256",
          "name": "",
          "type": "uint256"
        }
      ],
      "stateMutability": "view",
      "type": "function"
    },
    {
      "inputs": [
        {
          "internalType": "uint256",
          "name": "",
          "type": "uint256"
        }
      ],
      "name": "feesReduction",
      "outputs": [
        {
          "internalType": "uint256",
          "name": "",
          "type": "uint256"
        }
      ],
      "stateMutability": "view",
      "type": "function"
    },
    {
      "inputs": [
        {
          "internalType": "address",
          "name": "_seller",
          "type": "address"
        }
      ],
      "name": "getAllActiveListingsBySeller",
      "outputs": [
        {
          "internalType": "uint256[]",
          "name": "",
          "type": "uint256[]"
        }
      ],
      "stateMutability": "view",
      "type": "function"
    },
    {
      "inputs": [
        {
          "internalType": "address",
          "name": "_seller",
          "type": "address"
        }
      ],
      "name": "getAllListingsBySeller",
      "outputs": [
        {
          "internalType": "uint256[]",
          "name": "",
          "type": "uint256[]"
        }
      ],
      "stateMutability": "view",
      "type": "function"
    },
    {
      "inputs": [
        {
          "internalType": "address",
          "name": "seller",
          "type": "address"
        },
        {
          "internalType": "uint256",
          "name": "price",
          "type": "uint256"
        }
      ],
      "name": "getValueWithFeeApplied",
      "outputs": [
        {
          "internalType": "uint256",
          "name": "",
          "type": "uint256"
        }
      ],
      "stateMutability": "view",
      "type": "function"
    },
    {
      "inputs": [
        {
          "internalType": "uint256",
          "name": "_tokenId",
          "type": "uint256"
        },
        {
          "internalType": "uint256",
          "name": "_price",
          "type": "uint256"
        }
      ],
      "name": "listNFT",
      "outputs": [],
      "stateMutability": "payable",
      "type": "function"
    },
    {
      "inputs": [
        {
          "internalType": "uint256",
          "name": "",
          "type": "uint256"
        }
      ],
      "name": "listings",
      "outputs": [
        {
          "internalType": "address payable",
          "name": "seller",
          "type": "address"
        },
        {
          "internalType": "uint256",
          "name": "tokenId",
          "type": "uint256"
        },
        {
          "internalType": "uint256",
          "name": "price",
          "type": "uint256"
        },
        {
          "internalType": "uint256",
          "name": "dateMaxToSell",
          "type": "uint256"
        }
      ],
      "stateMutability": "view",
      "type": "function"
    },
    {
      "inputs": [],
      "name": "nftContract",
      "outputs": [
        {
          "internalType": "contract Reservation",
          "name": "",
          "type": "address"
        }
      ],
      "stateMutability": "view",
      "type": "function"
    },
    {
      "inputs": [
        {
          "internalType": "address",
          "name": "",
          "type": "address"
        },
        {
          "internalType": "address",
          "name": "",
          "type": "address"
        },
        {
          "internalType": "uint256",
          "name": "",
          "type": "uint256"
        },
        {
          "internalType": "bytes",
          "name": "",
          "type": "bytes"
        }
      ],
      "name": "onERC721Received",
      "outputs": [
        {
          "internalType": "bytes4",
          "name": "",
          "type": "bytes4"
        }
      ],
      "stateMutability": "nonpayable",
      "type": "function"
    },
    {
      "inputs": [],
      "name": "owner",
      "outputs": [
        {
          "internalType": "address",
          "name": "",
          "type": "address"
        }
      ],
      "stateMutability": "view",
      "type": "function"
    },
    {
      "inputs": [],
      "name": "renounceOwnership",
      "outputs": [],
      "stateMutability": "nonpayable",
      "type": "function"
    },
    {
      "inputs": [
        {
          "internalType": "address",
          "name": "",
          "type": "address"
        }
      ],
      "name": "sellerRating",
      "outputs": [
        {
          "internalType": "uint256",
          "name": "",
          "type": "uint256"
        }
      ],
      "stateMutability": "view",
      "type": "function"
    },
    {
      "inputs": [],
      "name": "totalFeeValueAccumulated",
      "outputs": [
        {
          "internalType": "uint256",
          "name": "",
          "type": "uint256"
        }
      ],
      "stateMutability": "view",
      "type": "function"
    },
    {
      "inputs": [
        {
          "internalType": "address",
          "name": "newOwner",
          "type": "address"
        }
      ],
      "name": "transferOwnership",
      "outputs": [],
      "stateMutability": "nonpayable",
      "type": "function"
    },
    {
      "inputs": [
        {
          "internalType": "uint256",
          "name": "_tokenId",
          "type": "uint256"
        }
      ],
      "name": "unlistNFT",
      "outputs": [],
      "stateMutability": "nonpayable",
      "type": "function"
    },
    {
      "inputs": [],
      "name": "withdraw",
      "outputs": [],
      "stateMutability": "nonpayable",
      "type": "function"
    }
  ],
  "transactionHash": "0x8ed63fbcfd78f20684e7a61d32ba6e135278b6fbca3c4836f6bc0b4cfa1d7b3f",
  "args": [
    "0x2Bc61fba63B35eB4E0Ebf3c60747dA100d7b0798"
  ],
  "numDeployments": 1,
  "solcInputHash": "f79d3333bb69175de46c677fd6d9a393",
  "bytecode": "0x600060065560056007819055610120604052600a6080908152601460a052601e60c052602860e0526032610100526200003c9160089190620000f2565b503480156200004a57600080fd5b5060405162001700380380620017008339810160408190526200006d9162000151565b6200007833620000a2565b60018055600280546001600160a01b0319166001600160a01b039290921691909117905562000183565b600080546001600160a01b038381166001600160a01b0319831681178455604051919092169283917f8be0079c531659141344cd1fd0a4f28419497f9722a3daafe3b4186f6b6457e09190a35050565b826006810192821562000128579160200282015b8281111562000128578251829060ff1690559160200191906001019062000106565b50620001369291506200013a565b5090565b5b808211156200013657600081556001016200013b565b6000602082840312156200016457600080fd5b81516001600160a01b03811681146200017c57600080fd5b9392505050565b61156d80620001936000396000f3fe6080604052600436106100fe5760003560e01c8063715018a611610095578063961f094411610064578063961f0944146102a4578063b7a36c6c146102c4578063d56d229d146102e4578063de74e57b14610304578063f2fde38b1461037c57600080fd5b8063715018a6146102345780637f98cb28146102495780638da5cb5b1461025f57806394383f141461029157600080fd5b806342589fc0116100d157806342589fc0146101b157806351ed8288146101de5780635a6c72d0146101f15780636bcaaa781461020757600080fd5b80630b68b3df14610103578063150b7a02146101365780633ccfd60b1461017a578063404c491914610191575b600080fd5b34801561010f57600080fd5b5061012361011e366004611267565b61039c565b6040519081526020015b60405180910390f35b34801561014257600080fd5b506101616101513660046112a9565b630a85bd0160e11b949350505050565b6040516001600160e01b0319909116815260200161012d565b34801561018657600080fd5b5061018f61040e565b005b34801561019d57600080fd5b506101236101ac366004611389565b610453565b3480156101bd57600080fd5b506101d16101cc3660046113a2565b61046a565b60405161012d91906113bf565b61018f6101ec366004611389565b610589565b3480156101fd57600080fd5b5061012360075481565b34801561021357600080fd5b506101236102223660046113a2565b60056020526000908152604090205481565b34801561024057600080fd5b5061018f6108d3565b34801561025557600080fd5b5061012360065481565b34801561026b57600080fd5b506000546001600160a01b03165b6040516001600160a01b03909116815260200161012d565b61018f61029f366004611403565b6108e7565b3480156102b057600080fd5b5061018f6102bf366004611389565b610d18565b3480156102d057600080fd5b506101d16102df3660046113a2565b610e4e565b3480156102f057600080fd5b50600254610279906001600160a01b031681565b34801561031057600080fd5b5061035261031f366004611389565b600360208190526000918252604090912080546001820154600283015492909301546001600160a01b0390911692919084565b604080516001600160a01b039095168552602085019390935291830152606082015260800161012d565b34801561038857600080fd5b5061018f6103973660046113a2565b610f38565b6001600160a01b03821660009081526005602052604081205480156103f8576064600882600681106103d0576103d0611425565b01546103dc9085611451565b6103e69190611468565b6103f0908461148a565b915050610408565b6064600754846103dc9190611451565b92915050565b610416610fae565b600080546040516001600160a01b03909116914780156108fc02929091818181858888f19350505050158015610450573d6000803e3d6000fd5b50565b6008816006811061046357600080fd5b0154905081565b6001600160a01b03811660009081526004602052604081206060919061048f90611008565b67ffffffffffffffff8111156104a7576104a7611293565b6040519080825280602002602001820160405280156104d0578160200160208202803683370190505b5090506000805b6001600160a01b03851660009081526004602052604090206104f890611008565b811015610580576001600160a01b03851660009081526004602052604081206105219083611012565b9050426003600083815260200190815260200160002060030154111561056d578084848151811061055457610554611425565b6020908102919091010152826105698161149d565b9350505b50806105788161149d565b9150506104d7565b50909392505050565b610591611025565b600081815260036020818152604092839020835160808101855281546001600160a01b031680825260018301549382019390935260028201549481019490945290910154606083015261061e5760405162461bcd60e51b815260206004820152601060248201526f151bdad95b881b9bdd081b1a5cdd195960821b60448201526064015b60405180910390fd5b80604001513410156106695760405162461bcd60e51b8152602060048201526014602482015273125b9cdd59999a58da595b9d081c185e5b595b9d60621b6044820152606401610615565b80606001514211156106af5760405162461bcd60e51b815260206004820152600f60248201526e131a5cdd1a5b99c8195e1c1a5c9959608a1b6044820152606401610615565b80516001600160a01b031633036107085760405162461bcd60e51b815260206004820152601b60248201527f53656c6c65722063616e6e6f7420627579206f776e20746f6b656e00000000006044820152606401610615565b805160408083015160025460208501519251632142170760e11b8152306004820152336024820152604481019390935290916001600160a01b03909116906342842e0e90606401600060405180830381600087803b15801561076957600080fd5b505af115801561077d573d6000803e3d6000fd5b505050600085815260036020818152604080842080546001600160a01b031916815560018101859055600281018590559092018390556001600160a01b03861683526004905290206107d091508561107e565b5060006107dd838361039c565b905060006107eb828461148a565b905080600660008282546107ff91906114b6565b9091555050600080546040516001600160a01b039091169183156108fc02918491818181858888f1935050505015801561083d573d6000803e3d6000fd5b506040516001600160a01b0385169083156108fc029084906000818181858888f19350505050158015610874573d6000803e3d6000fd5b50336001600160a01b038516877f5fafad85dec201c2e73b6a2bef6351129304a624ea8720ecd04cd7f04d83bc39866108ad878261148a565b6040805192835260208301919091520160405180910390a4505050505061045060018055565b6108db610fae565b6108e5600061108a565b565b6108ef611025565b6002546040516331a9108f60e11b81526004810184905233916001600160a01b031690636352211e90602401602060405180830381865afa158015610938573d6000803e3d6000fd5b505050506040513d601f19601f8201168201806040525081019061095c91906114c9565b6001600160a01b0316146109b25760405162461bcd60e51b815260206004820152601960248201527f4f6e6c7920746f6b656e206f776e65722063616e206c697374000000000000006044820152606401610615565b6000828152600360205260409020546001600160a01b031615610a0e5760405162461bcd60e51b8152602060048201526014602482015273151bdad95b88185b1c9958591e481b1a5cdd195960621b6044820152606401610615565b60008111610a5e5760405162461bcd60e51b815260206004820152601f60248201527f5072696365206d7573742062652067726561746572207468616e207a65726f006044820152606401610615565b60025460405163e985e9c560e01b81523360048201523060248201526001600160a01b039091169063e985e9c590604401602060405180830381865afa158015610aac573d6000803e3d6000fd5b505050506040513d601f19601f82011682018060405250810190610ad091906114e6565b1515600114610b345760405162461bcd60e51b815260206004820152602a60248201527f4d61726b6574706c616365206e6f7420617070726f76656420746f207472616e60448201526939b332b9103a37b5b2b760b11b6064820152608401610615565b600254604051630377153f60e01b8152600481018490526000916001600160a01b031690630377153f90602401602060405180830381865afa158015610b7e573d6000803e3d6000fd5b505050506040513d601f19601f82011682018060405250810190610ba29190611508565b9050428110610bf35760405162461bcd60e51b815260206004820152601d60248201527f546f6b656e2063616e27742062652074726164656420616e796d6f72650000006044820152606401610615565b604080516080810182523380825260208083018781528385018781526060850187815260008a81526003808652888220975188546001600160a01b0319166001600160a01b0390911617885593516001880155915160028701555194909101939093559082526004905220610c6890846110da565b50600254604051632142170760e11b8152336004820152306024820152604481018590526001600160a01b03909116906342842e0e90606401600060405180830381600087803b158015610cbb57600080fd5b505af1158015610ccf573d6000803e3d6000fd5b50506040518481523392508591507f5f9c03de076f5063cd3ebcfe8ef7aa8af378e4b35a83c77ba9777e97083879a29060200160405180910390a350610d1460018055565b5050565b6000818152600360205260409020546001600160a01b03163314610d6f5760405162461bcd60e51b815260206004820152600e60248201526d2737ba103a34329039b2b63632b960911b6044820152606401610615565b600081815260036020818152604080842080546001600160a01b03191681556001810185905560028101859055909201839055338352600490529020610db5908261107e565b50600254604051632142170760e11b8152306004820152336024820152604481018390526001600160a01b03909116906342842e0e90606401600060405180830381600087803b158015610e0857600080fd5b505af1158015610e1c573d6000803e3d6000fd5b50506040518392507fcd14eb7ebf273ed59a9fd1cf8651f3f40d9a04355b3511376f0d17b37ba224ff9150600090a250565b6001600160a01b038116600090815260046020526040812060609190610e7390611008565b67ffffffffffffffff811115610e8b57610e8b611293565b604051908082528060200260200182016040528015610eb4578160200160208202803683370190505b50905060005b6001600160a01b0384166000908152600460205260409020610edb90611008565b811015610f31576001600160a01b0384166000908152600460205260409020610f049082611012565b828281518110610f1657610f16611425565b6020908102919091010152610f2a8161149d565b9050610eba565b5092915050565b610f40610fae565b6001600160a01b038116610fa55760405162461bcd60e51b815260206004820152602660248201527f4f776e61626c653a206e6577206f776e657220697320746865207a65726f206160448201526564647265737360d01b6064820152608401610615565b6104508161108a565b6000546001600160a01b031633146108e55760405162461bcd60e51b815260206004820181905260248201527f4f776e61626c653a2063616c6c6572206973206e6f7420746865206f776e65726044820152606401610615565b6000610408825490565b600061101e83836110e6565b9392505050565b6002600154036110775760405162461bcd60e51b815260206004820152601f60248201527f5265656e7472616e637947756172643a207265656e7472616e742063616c6c006044820152606401610615565b6002600155565b600061101e8383611110565b600080546001600160a01b038381166001600160a01b0319831681178455604051919092169283917f8be0079c531659141344cd1fd0a4f28419497f9722a3daafe3b4186f6b6457e09190a35050565b600061101e8383611203565b60008260000182815481106110fd576110fd611425565b9060005260206000200154905092915050565b600081815260018301602052604081205480156111f957600061113460018361148a565b85549091506000906111489060019061148a565b90508181146111ad57600086600001828154811061116857611168611425565b906000526020600020015490508087600001848154811061118b5761118b611425565b6000918252602080832090910192909255918252600188019052604090208390555b85548690806111be576111be611521565b600190038181906000526020600020016000905590558560010160008681526020019081526020016000206000905560019350505050610408565b6000915050610408565b600081815260018301602052604081205461124a57508154600181810184556000848152602080822090930184905584548482528286019093526040902091909155610408565b506000610408565b6001600160a01b038116811461045057600080fd5b6000806040838503121561127a57600080fd5b823561128581611252565b946020939093013593505050565b634e487b7160e01b600052604160045260246000fd5b600080600080608085870312156112bf57600080fd5b84356112ca81611252565b935060208501356112da81611252565b925060408501359150606085013567ffffffffffffffff808211156112fe57600080fd5b818701915087601f83011261131257600080fd5b81358181111561132457611324611293565b604051601f8201601f19908116603f0116810190838211818310171561134c5761134c611293565b816040528281528a602084870101111561136557600080fd5b82602086016020830137600060208483010152809550505050505092959194509250565b60006020828403121561139b57600080fd5b5035919050565b6000602082840312156113b457600080fd5b813561101e81611252565b6020808252825182820181905260009190848201906040850190845b818110156113f7578351835292840192918401916001016113db565b50909695505050505050565b6000806040838503121561141657600080fd5b50508035926020909101359150565b634e487b7160e01b600052603260045260246000fd5b634e487b7160e01b600052601160045260246000fd5b80820281158282048414176104085761040861143b565b60008261148557634e487b7160e01b600052601260045260246000fd5b500490565b818103818111156104085761040861143b565b6000600182016114af576114af61143b565b5060010190565b808201808211156104085761040861143b565b6000602082840312156114db57600080fd5b815161101e81611252565b6000602082840312156114f857600080fd5b8151801515811461101e57600080fd5b60006020828403121561151a57600080fd5b5051919050565b634e487b7160e01b600052603160045260246000fdfea26469706673582212205dec841b8495400a064ff82493fb6e91f018133b10ae0b33a3f6012ebbc4c0a164736f6c63430008140033",
  "devdoc": {
    "author": "@cesarsst && @YanVictorSN",
    "kind": "dev",
    "methods": {
      "buyNFT(uint256)": {
        "details": "Buy an NFT listed for sale",
        "params": {
          "_tokenId": "The ID of the token being bought"
        }
      },
      "getAllActiveListingsBySeller(address)": {
        "details": "Get all active listings by seller, i.e. listings that have not expired",
        "params": {
          "_seller": "The seller address"
        }
      },
      "getAllListingsBySeller(address)": {
        "details": "Get all listings by seller",
        "params": {
          "_seller": "The seller address"
        }
      },
      "getValueWithFeeApplied(address,uint256)": {
        "details": "Get the value of a payment with the fee applied",
        "params": {
          "price": "The price of the NFT",
          "seller": "The seller address"
        }
      },
      "listNFT(uint256,uint256)": {
        "details": "List an NFT for sale and transferring token ownership to the marketplace contract",
        "params": {
          "_price": "The price at which the token is listed for sale",
          "_tokenId": "The ID of the token being listed for sale"
        }
      },
      "owner()": {
        "details": "Returns the address of the current owner."
      },
      "renounceOwnership()": {
        "details": "Leaves the contract without owner. It will not be possible to call `onlyOwner` functions. Can only be called by the current owner. NOTE: Renouncing ownership will leave the contract without an owner, thereby disabling any functionality that is only available to the owner."
      },
      "transferOwnership(address)": {
        "details": "Transfers ownership of the contract to a new account (`newOwner`). Can only be called by the current owner."
      },
      "unlistNFT(uint256)": {
        "details": "Unlist an NFT listed for sale",
        "params": {
          "_tokenId": "The ID of the token being unlisted"
        }
      }
    },
    "title": "Reservation MarketPlace",
    "version": 1
  },
  "userdoc": {
    "events": {
      "NFTListed(uint256,address,uint256)": {
        "notice": "Events///"
      }
    },
    "kind": "user",
    "methods": {
      "constructor": {
        "notice": "Constructor///"
      },
      "onERC721Received(address,address,uint256,bytes)": {
        "notice": "ERC721 token receiver function"
      },
      "withdraw()": {
        "notice": "Withdraw the accumulated fee value and send to the owner"
      }
    },
    "notice": "This contract is a marketplace for the Reservation NFTs",
    "version": 1
  },
  "storageLayout": {
    "storage": [
      {
        "astId": 7,
        "contract": "contracts/ReservationMarketplace.sol:ReservationMarketplace",
        "label": "_owner",
        "offset": 0,
        "slot": "0",
        "type": "t_address"
      },
      {
        "astId": 151,
        "contract": "contracts/ReservationMarketplace.sol:ReservationMarketplace",
        "label": "_status",
        "offset": 0,
        "slot": "1",
        "type": "t_uint256"
      },
      {
        "astId": 4721,
        "contract": "contracts/ReservationMarketplace.sol:ReservationMarketplace",
        "label": "nftContract",
        "offset": 0,
        "slot": "2",
        "type": "t_contract(Reservation)4504"
      },
      {
        "astId": 4726,
        "contract": "contracts/ReservationMarketplace.sol:ReservationMarketplace",
        "label": "listings",
        "offset": 0,
        "slot": "3",
        "type": "t_mapping(t_uint256,t_struct(Listing)4714_storage)"
      },
      {
        "astId": 4731,
        "contract": "contracts/ReservationMarketplace.sol:ReservationMarketplace",
        "label": "sellerListings",
        "offset": 0,
        "slot": "4",
        "type": "t_mapping(t_address,t_struct(UintSet)3602_storage)"
      },
      {
        "astId": 4735,
        "contract": "contracts/ReservationMarketplace.sol:ReservationMarketplace",
        "label": "sellerRating",
        "offset": 0,
        "slot": "5",
        "type": "t_mapping(t_address,t_uint256)"
      },
      {
        "astId": 4738,
        "contract": "contracts/ReservationMarketplace.sol:ReservationMarketplace",
        "label": "totalFeeValueAccumulated",
        "offset": 0,
        "slot": "6",
        "type": "t_uint256"
      },
      {
        "astId": 4741,
        "contract": "contracts/ReservationMarketplace.sol:ReservationMarketplace",
        "label": "defaultFee",
        "offset": 0,
        "slot": "7",
        "type": "t_uint256"
      },
      {
        "astId": 4751,
        "contract": "contracts/ReservationMarketplace.sol:ReservationMarketplace",
        "label": "feesReduction",
        "offset": 0,
        "slot": "8",
        "type": "t_array(t_uint256)6_storage"
      }
    ],
    "types": {
      "t_address": {
        "encoding": "inplace",
        "label": "address",
        "numberOfBytes": "20"
      },
      "t_address_payable": {
        "encoding": "inplace",
        "label": "address payable",
        "numberOfBytes": "20"
      },
      "t_array(t_bytes32)dyn_storage": {
        "base": "t_bytes32",
        "encoding": "dynamic_array",
        "label": "bytes32[]",
        "numberOfBytes": "32"
      },
      "t_array(t_uint256)6_storage": {
        "base": "t_uint256",
        "encoding": "inplace",
        "label": "uint256[6]",
        "numberOfBytes": "192"
      },
      "t_bytes32": {
        "encoding": "inplace",
        "label": "bytes32",
        "numberOfBytes": "32"
      },
      "t_contract(Reservation)4504": {
        "encoding": "inplace",
        "label": "contract Reservation",
        "numberOfBytes": "20"
      },
      "t_mapping(t_address,t_struct(UintSet)3602_storage)": {
        "encoding": "mapping",
        "key": "t_address",
        "label": "mapping(address => struct EnumerableSet.UintSet)",
        "numberOfBytes": "32",
        "value": "t_struct(UintSet)3602_storage"
      },
      "t_mapping(t_address,t_uint256)": {
        "encoding": "mapping",
        "key": "t_address",
        "label": "mapping(address => uint256)",
        "numberOfBytes": "32",
        "value": "t_uint256"
      },
      "t_mapping(t_bytes32,t_uint256)": {
        "encoding": "mapping",
        "key": "t_bytes32",
        "label": "mapping(bytes32 => uint256)",
        "numberOfBytes": "32",
        "value": "t_uint256"
      },
      "t_mapping(t_uint256,t_struct(Listing)4714_storage)": {
        "encoding": "mapping",
        "key": "t_uint256",
        "label": "mapping(uint256 => struct ReservationMarketplace.Listing)",
        "numberOfBytes": "32",
        "value": "t_struct(Listing)4714_storage"
      },
      "t_struct(Listing)4714_storage": {
        "encoding": "inplace",
        "label": "struct ReservationMarketplace.Listing",
        "members": [
          {
            "astId": 4707,
            "contract": "contracts/ReservationMarketplace.sol:ReservationMarketplace",
            "label": "seller",
            "offset": 0,
            "slot": "0",
            "type": "t_address_payable"
          },
          {
            "astId": 4709,
            "contract": "contracts/ReservationMarketplace.sol:ReservationMarketplace",
            "label": "tokenId",
            "offset": 0,
            "slot": "1",
            "type": "t_uint256"
          },
          {
            "astId": 4711,
            "contract": "contracts/ReservationMarketplace.sol:ReservationMarketplace",
            "label": "price",
            "offset": 0,
            "slot": "2",
            "type": "t_uint256"
          },
          {
            "astId": 4713,
            "contract": "contracts/ReservationMarketplace.sol:ReservationMarketplace",
            "label": "dateMaxToSell",
            "offset": 0,
            "slot": "3",
            "type": "t_uint256"
          }
        ],
        "numberOfBytes": "128"
      },
      "t_struct(Set)3130_storage": {
        "encoding": "inplace",
        "label": "struct EnumerableSet.Set",
        "members": [
          {
            "astId": 3125,
            "contract": "contracts/ReservationMarketplace.sol:ReservationMarketplace",
            "label": "_values",
            "offset": 0,
            "slot": "0",
            "type": "t_array(t_bytes32)dyn_storage"
          },
          {
            "astId": 3129,
            "contract": "contracts/ReservationMarketplace.sol:ReservationMarketplace",
            "label": "_indexes",
            "offset": 0,
            "slot": "1",
            "type": "t_mapping(t_bytes32,t_uint256)"
          }
        ],
        "numberOfBytes": "64"
      },
      "t_struct(UintSet)3602_storage": {
        "encoding": "inplace",
        "label": "struct EnumerableSet.UintSet",
        "members": [
          {
            "astId": 3601,
            "contract": "contracts/ReservationMarketplace.sol:ReservationMarketplace",
            "label": "_inner",
            "offset": 0,
            "slot": "0",
            "type": "t_struct(Set)3130_storage"
          }
        ],
        "numberOfBytes": "64"
      },
      "t_uint256": {
        "encoding": "inplace",
        "label": "uint256",
        "numberOfBytes": "32"
      }
    }
  }
}