{
  "address": "0x8dCcF8BceECc41009FC57415592eE23497D32975",
  "abi": [
    {
      "anonymous": false,
      "inputs": [
        {
          "indexed": true,
          "internalType": "address",
          "name": "previousOwner",
          "type": "address"
        },
        {
          "indexed": true,
          "internalType": "address",
          "name": "newOwner",
          "type": "address"
        }
      ],
      "name": "OwnershipTransferred",
      "type": "event"
    },
    {
      "anonymous": false,
      "inputs": [
        {
          "indexed": true,
          "internalType": "address",
          "name": "contractAddress",
          "type": "address"
        },
        {
          "indexed": true,
          "internalType": "address",
          "name": "companyAddress",
          "type": "address"
        },
        {
          "indexed": false,
          "internalType": "string",
          "name": "companyName",
          "type": "string"
        }
      ],
      "name": "ReservationContractDeployed",
      "type": "event"
    },
    {
      "anonymous": false,
      "inputs": [
        {
          "indexed": true,
          "internalType": "address",
          "name": "contractAddress",
          "type": "address"
        },
        {
          "indexed": true,
          "internalType": "address",
          "name": "companyAddress",
          "type": "address"
        }
      ],
      "name": "ReservationContractRevoked",
      "type": "event"
    },
    {
      "inputs": [
        {
          "internalType": "uint256",
          "name": "",
          "type": "uint256"
        }
      ],
      "name": "allContracts",
      "outputs": [
        {
          "internalType": "address",
          "name": "",
          "type": "address"
        }
      ],
      "stateMutability": "view",
      "type": "function"
    },
    {
      "inputs": [
        {
          "internalType": "string",
          "name": "_companyName",
          "type": "string"
        }
      ],
      "name": "createReservationContract",
      "outputs": [],
      "stateMutability": "nonpayable",
      "type": "function"
    },
    {
      "inputs": [
        {
          "internalType": "address",
          "name": "",
          "type": "address"
        }
      ],
      "name": "deployedContracts",
      "outputs": [
        {
          "internalType": "address",
          "name": "companyAddress",
          "type": "address"
        },
        {
          "internalType": "address",
          "name": "contractAddress",
          "type": "address"
        },
        {
          "internalType": "string",
          "name": "companyName",
          "type": "string"
        }
      ],
      "stateMutability": "view",
      "type": "function"
    },
    {
      "inputs": [],
      "name": "getAllContracts",
      "outputs": [
        {
          "internalType": "address[]",
          "name": "",
          "type": "address[]"
        }
      ],
      "stateMutability": "view",
      "type": "function"
    },
    {
      "inputs": [],
      "name": "getAllDeployedContracts",
      "outputs": [
        {
          "components": [
            {
              "internalType": "address",
              "name": "companyAddress",
              "type": "address"
            },
            {
              "internalType": "address",
              "name": "contractAddress",
              "type": "address"
            },
            {
              "internalType": "string",
              "name": "companyName",
              "type": "string"
            }
          ],
          "internalType": "struct ReservationFactory.ReservationContract[]",
          "name": "",
          "type": "tuple[]"
        }
      ],
      "stateMutability": "view",
      "type": "function"
    },
    {
      "inputs": [],
      "name": "owner",
      "outputs": [
        {
          "internalType": "address",
          "name": "",
          "type": "address"
        }
      ],
      "stateMutability": "view",
      "type": "function"
    },
    {
      "inputs": [],
      "name": "renounceOwnership",
      "outputs": [],
      "stateMutability": "nonpayable",
      "type": "function"
    },
    {
      "inputs": [
        {
          "internalType": "address",
          "name": "contractAddress",
          "type": "address"
        }
      ],
      "name": "revokeReservationContract",
      "outputs": [],
      "stateMutability": "nonpayable",
      "type": "function"
    },
    {
      "inputs": [
        {
          "internalType": "address",
          "name": "newOwner",
          "type": "address"
        }
      ],
      "name": "transferOwnership",
      "outputs": [],
      "stateMutability": "nonpayable",
      "type": "function"
    }
  ],
  "transactionHash": "0xc9cc5c3eef02e8e3ef1033eab05a715be861bf379f9bd7ffcfbda2abf1459693",
  "args": [],
  "numDeployments": 1,
  "solcInputHash": "e579c97d9b6a4be10e302f1a8d892d1a",
  "bytecode": "0x608060405234801561001057600080fd5b5061001a3361001f565b61006f565b600080546001600160a01b038381166001600160a01b0319831681178455604051919092169283917f8be0079c531659141344cd1fd0a4f28419497f9722a3daafe3b4186f6b6457e09190a35050565b61549c8061007e6000396000f3fe60806040523480156200001157600080fd5b50600436106200009f5760003560e01c8063715018a6116200006e578063715018a6146200010f5780638da5cb5b1462000119578063c70242ad146200013f578063e54e26b91462000167578063f2fde38b146200017e57600080fd5b806318d3ce9614620000a45780633367db8214620000c65780633d0c13b214620000df5780636c9364b214620000f6575b600080fd5b620000ae62000195565b604051620000bd9190620009b9565b60405180910390f35b620000dd620000d736600462000a1e565b620001f9565b005b620000dd620000f036600462000ad9565b62000334565b6200010062000449565b604051620000bd919062000b53565b620000dd62000609565b6000546001600160a01b03165b6040516001600160a01b039091168152602001620000bd565b620001566200015036600462000ad9565b62000621565b604051620000bd9392919062000be2565b620001266200017836600462000c19565b620006e3565b620000dd6200018f36600462000ad9565b6200070e565b60606002805480602002602001604051908101604052809291908181526020018280548015620001ef57602002820191906000526020600020905b81546001600160a01b03168152600190910190602001808311620001d0575b5050505050905090565b6000604051620002099062000957565b604051809103906000f08015801562000226573d6000803e3d6000fd5b50604080516060810182523381526001600160a01b038084166020808401828152848601898152600093845260019283905295909220845181549085166001600160a01b031991821617825592519181018054929094169190921617909155915192935083929091906002820190620002a0908262000cc1565b5050600280546001810182556000919091527f405787fa12a823e0f2b7631cc41b3ba8828b3321ca811111fa75cd3aa3bb5ace0180546001600160a01b0319166001600160a01b03841690811790915560405190915033907f2ccdca3e1b0543a98b533de078884ff23cf13b32f4bd118fd6afa824728e30a7906200032790879062000d8e565b60405180910390a3505050565b6200033e6200078d565b6001600160a01b038181166000908152600160208190526040909120015416620003af5760405162461bcd60e51b815260206004820152601760248201527f436f6e747261637420646f6573206e6f7420657869737400000000000000000060448201526064015b60405180910390fd5b6001600160a01b038082166000908152600160208190526040822080546001600160a01b03198082168355928201805490931690925592169190620003f8600283018262000965565b50506200040582620007e9565b806001600160a01b0316826001600160a01b03167fa19b3707795056482a17062ff074776527d2f61e6e15a75576409c961cd7397460405160405180910390a35050565b60025460609060008167ffffffffffffffff8111156200046d576200046d62000a08565b604051908082528060200260200182016040528015620004bc57816020015b604080516060808201835260008083526020830152918101919091528152602001906001900390816200048c5790505b50905060005b828110156200060257600060028281548110620004e357620004e362000da3565b60009182526020808320909101546001600160a01b03908116808452600180845260409485902085516060810187528154851681529181015490931693810193909352600282018054919550929391929184019190620005439062000c33565b80601f0160208091040260200160405190810160405280929190818152602001828054620005719062000c33565b8015620005c25780601f106200059657610100808354040283529160200191620005c2565b820191906000526020600020905b815481529060010190602001808311620005a457829003601f168201915b505050505081525050838381518110620005e057620005e062000da3565b6020026020010181905250508080620005f99062000dcf565b915050620004c2565b5092915050565b620006136200078d565b6200061f600062000907565b565b60016020819052600091825260409091208054918101546002820180546001600160a01b039485169490921692916200065a9062000c33565b80601f0160208091040260200160405190810160405280929190818152602001828054620006889062000c33565b8015620006d95780601f10620006ad57610100808354040283529160200191620006d9565b820191906000526020600020905b815481529060010190602001808311620006bb57829003601f168201915b5050505050905083565b60028181548110620006f457600080fd5b6000918252602090912001546001600160a01b0316905081565b620007186200078d565b6001600160a01b0381166200077f5760405162461bcd60e51b815260206004820152602660248201527f4f776e61626c653a206e6577206f776e657220697320746865207a65726f206160448201526564647265737360d01b6064820152608401620003a6565b6200078a8162000907565b50565b6000546001600160a01b031633146200061f5760405162461bcd60e51b815260206004820181905260248201527f4f776e61626c653a2063616c6c6572206973206e6f7420746865206f776e65726044820152606401620003a6565b60025460005b818110156200090257826001600160a01b03166002828154811062000818576200081862000da3565b6000918252602090912001546001600160a01b031603620008ed5760026200084260018462000deb565b8154811062000855576200085562000da3565b600091825260209091200154600280546001600160a01b03909216918390811062000884576200088462000da3565b9060005260206000200160006101000a8154816001600160a01b0302191690836001600160a01b031602179055506002805480620008c657620008c662000e07565b600082815260209020810160001990810180546001600160a01b0319169055019055505050565b80620008f98162000dcf565b915050620007ef565b505050565b600080546001600160a01b038381166001600160a01b0319831681178455604051919092169283917f8be0079c531659141344cd1fd0a4f28419497f9722a3daafe3b4186f6b6457e09190a35050565b6146498062000e1e83390190565b508054620009739062000c33565b6000825580601f1062000984575050565b601f0160209004906000526020600020908101906200078a91905b80821115620009b557600081556001016200099f565b5090565b6020808252825182820181905260009190848201906040850190845b81811015620009fc5783516001600160a01b031683529284019291840191600101620009d5565b50909695505050505050565b634e487b7160e01b600052604160045260246000fd5b60006020828403121562000a3157600080fd5b813567ffffffffffffffff8082111562000a4a57600080fd5b818401915084601f83011262000a5f57600080fd5b81358181111562000a745762000a7462000a08565b604051601f8201601f19908116603f0116810190838211818310171562000a9f5762000a9f62000a08565b8160405282815287602084870101111562000ab957600080fd5b826020860160208301376000928101602001929092525095945050505050565b60006020828403121562000aec57600080fd5b81356001600160a01b038116811462000b0457600080fd5b9392505050565b6000815180845260005b8181101562000b335760208185018101518683018201520162000b15565b506000602082860101526020601f19601f83011685010191505092915050565b60006020808301818452808551808352604092508286019150828160051b87010184880160005b8381101562000bd457888303603f19018552815180516001600160a01b039081168552888201511688850152860151606087850181905262000bbf8186018362000b0b565b96890196945050509086019060010162000b7a565b509098975050505050505050565b6001600160a01b0384811682528316602082015260606040820181905260009062000c109083018462000b0b565b95945050505050565b60006020828403121562000c2c57600080fd5b5035919050565b600181811c9082168062000c4857607f821691505b60208210810362000c6957634e487b7160e01b600052602260045260246000fd5b50919050565b601f8211156200090257600081815260208120601f850160051c8101602086101562000c985750805b601f850160051c820191505b8181101562000cb95782815560010162000ca4565b505050505050565b815167ffffffffffffffff81111562000cde5762000cde62000a08565b62000cf68162000cef845462000c33565b8462000c6f565b602080601f83116001811462000d2e576000841562000d155750858301515b600019600386901b1c1916600185901b17855562000cb9565b600085815260208120601f198616915b8281101562000d5f5788860151825594840194600190910190840162000d3e565b508582101562000d7e5787850151600019600388901b60f8161c191681555b5050505050600190811b01905550565b60208152600062000b04602083018462000b0b565b634e487b7160e01b600052603260045260246000fd5b634e487b7160e01b600052601160045260246000fd5b60006001820162000de45762000de462000db9565b5060010190565b8181038181111562000e015762000e0162000db9565b92915050565b634e487b7160e01b600052603160045260246000fdfe600c8054750bb8b83e47c2bc239b3bf370bc41e1459a34b41238d06001600160e01b0319909116179055600e805463ffffffff1916620493e01790557f66756e2d657468657265756d2d7365706f6c69612d3100000000000000000000600f556101a0604052606c61010081815260a091829190620042046101203981526020016040518060a0016040528060748152602001620045d56074913981526020016040518060a001604052806075815260200162004560607591399052620000cb906010906003620001f1565b506040518061032001604052806102f08152602001620042706102f09139601190620000f890826200036d565b503480156200010657600080fd5b50600c5460408051808201825260078152665265736572766560c81b602080830191909152825180840190935260038352622929ab60e91b908301526001600160a01b03909216919060006200015d83826200036d565b5060016200016c82826200036d565b50505062000189620001836200019b60201b60201c565b6200019f565b6001600160a01b031660805262000439565b3390565b600780546001600160a01b038381166001600160a01b0319831681179093556040519116919082907f8be0079c531659141344cd1fd0a4f28419497f9722a3daafe3b4186f6b6457e090600090a35050565b8280548282559060005260206000209081019282156200023c579160200282015b828111156200023c57825182906200022b90826200036d565b509160200191906001019062000212565b506200024a9291506200024e565b5090565b808211156200024a5760006200026582826200026f565b506001016200024e565b5080546200027d90620002de565b6000825580601f106200028e575050565b601f016020900490600052602060002090810190620002ae9190620002b1565b50565b5b808211156200024a5760008155600101620002b2565b634e487b7160e01b600052604160045260246000fd5b600181811c90821680620002f357607f821691505b6020821081036200031457634e487b7160e01b600052602260045260246000fd5b50919050565b601f8211156200036857600081815260208120601f850160051c81016020861015620003435750805b601f850160051c820191505b8181101562000364578281556001016200034f565b5050505b505050565b81516001600160401b03811115620003895762000389620002c8565b620003a1816200039a8454620002de565b846200031a565b602080601f831160018114620003d95760008415620003c05750858301515b600019600386901b1c1916600185901b17855562000364565b600085815260208120601f198616915b828110156200040a57888601518255948401946001909101908401620003e9565b5085821015620004295787850151600019600388901b60f8161c191681555b5050505050600190811b01905550565b608051613da86200045c600039600081816108a20152611fb10152613da86000f3fe6080604052600436106101f95760003560e01c80636cc8d8cf1161010d578063b1e21749116100a0578063c87b56dd1161006f578063c87b56dd146105a9578063cfb5a921146105c9578063e985e9c5146105f6578063f2fde38b1461063f578063faa07ec11461065f57600080fd5b8063b1e217491461053e578063b88d4fde14610554578063b9d3ab8414610574578063bd4cf3501461059457600080fd5b80638d75aed6116100dc5780638d75aed6146104d85780638da5cb5b146104eb57806395d89b4114610509578063a22cb4651461051e57600080fd5b80636cc8d8cf146104565780636ff3043c1461048357806370a08231146104a3578063715018a6146104c357600080fd5b806323b872dd116101905780634c8f60a31161015f5780634c8f60a3146103b45780634d2e03a0146103d457806357b6f1a1146103e95780636352211e14610416578063642521c51461043657600080fd5b806323b872dd1461034a5780633944ea3a1461036a57806342842e0e1461037f5780634b0795a81461039f57600080fd5b8063095ea7b3116101cc578063095ea7b3146102bb5780630ca76175146102dd578063132a98c0146102fd57806313ff7e9f1461032a57600080fd5b806301ffc9a7146101fe5780630377153f1461023357806306fdde0314610261578063081812fc14610283575b600080fd5b34801561020a57600080fd5b5061021e6102193660046130bb565b610672565b60405190151581526020015b60405180910390f35b34801561023f57600080fd5b5061025361024e3660046130d8565b610683565b60405190815260200161022a565b34801561026d57600080fd5b506102766106c4565b60405161022a9190613141565b34801561028f57600080fd5b506102a361029e3660046130d8565b610756565b6040516001600160a01b03909116815260200161022a565b3480156102c757600080fd5b506102db6102d6366004613170565b61077d565b005b3480156102e957600080fd5b506102db6102f8366004613257565b610897565b34801561030957600080fd5b5061031d6103183660046132c3565b61091b565b60405161022a9190613393565b34801561033657600080fd5b5061031d6103453660046132c3565b6109fd565b34801561035657600080fd5b506102db6103653660046133a6565b610ad4565b34801561037657600080fd5b50610276610b05565b34801561038b57600080fd5b506102db61039a3660046133a6565b610b93565b3480156103ab57600080fd5b50610276610bae565b3480156103c057600080fd5b506102536103cf36600461342d565b610bbb565b3480156103e057600080fd5b50610276610cf7565b3480156103f557600080fd5b5061040961040436600461342d565b610d04565b60405161022a919061346e565b34801561042257600080fd5b506102a36104313660046130d8565b610ea7565b34801561044257600080fd5b506102db6104513660046134d0565b610f07565b34801561046257600080fd5b5061047661047136600461351f565b61108e565b60405161022a91906135b4565b34801561048f57600080fd5b506102db61049e3660046134d0565b611146565b3480156104af57600080fd5b506102536104be3660046132c3565b611207565b3480156104cf57600080fd5b506102db61128d565b6102db6104e63660046134d0565b6112a1565b3480156104f757600080fd5b506007546001600160a01b03166102a3565b34801561051557600080fd5b50610276611416565b34801561052a57600080fd5b506102db610539366004613609565b611425565b34801561054a57600080fd5b5061025360085481565b34801561056057600080fd5b506102db61056f366004613645565b611434565b34801561058057600080fd5b5061025361058f3660046130d8565b611466565b3480156105a057600080fd5b506102db61147f565b3480156105b557600080fd5b506102766105c43660046130d8565b611562565b3480156105d557600080fd5b506105e96105e43660046130d8565b61156d565b60405161022a91906136ac565b34801561060257600080fd5b5061021e61061136600461370e565b6001600160a01b03918216600090815260056020908152604080832093909416825291909152205460ff1690565b34801561064b57600080fd5b506102db61065a3660046132c3565b6115f7565b6102db61066d366004613738565b61166d565b600061067d82611938565b92915050565b3360009081526012602052604081208054839081106106a4576106a4613771565b90600052602060002090600502016001015462278d0061067d919061379d565b6060600080546106d3906137b0565b80601f01602080910402602001604051908101604052809291908181526020018280546106ff906137b0565b801561074c5780601f106107215761010080835404028352916020019161074c565b820191906000526020600020905b81548152906001019060200180831161072f57829003601f168201915b5050505050905090565b60006107618261195d565b506000908152600460205260409020546001600160a01b031690565b600061078882610ea7565b9050806001600160a01b0316836001600160a01b0316036107fa5760405162461bcd60e51b815260206004820152602160248201527f4552433732313a20617070726f76616c20746f2063757272656e74206f776e656044820152603960f91b60648201526084015b60405180910390fd5b336001600160a01b038216148061081657506108168133610611565b6108885760405162461bcd60e51b815260206004820152603d60248201527f4552433732313a20617070726f76652063616c6c6572206973206e6f7420746f60448201527f6b656e206f776e6572206f7220617070726f76656420666f7220616c6c00000060648201526084016107f1565b61089283836119bc565b505050565b336001600160a01b037f000000000000000000000000000000000000000000000000000000000000000016146108e05760405163c6829f8360e01b815260040160405180910390fd5b6108eb838383611a2a565b60405183907f85e1543bf2f84fe80c6badbce3648c8539ad1df4d2b3d822938ca0538be727e690600090a2505050565b6001600160a01b0381166000908152601260209081526040808320805482518185028101850190935280835260609492939192909184015b828210156109f25760008481526020908190206040805160c08101825260058602909201805483526001810154938301939093526002808401549183019190915260038301546060830152600483015460ff8082161515608085015292939260a085019261010090920416908111156109ce576109ce6132de565b60028111156109df576109df6132de565b8152505081526020019060010190610953565b505050509050919050565b6001600160a01b0381166000908152601260209081526040808320805482518185028101850190935280835260609492939192909184015b828210156109f25760008481526020908190206040805160c08101825260058602909201805483526001810154938301939093526002808401549183019190915260038301546060830152600483015460ff8082161515608085015292939260a08501926101009092041690811115610ab057610ab06132de565b6002811115610ac157610ac16132de565b8152505081526020019060010190610a35565b610ade3382611aba565b610afa5760405162461bcd60e51b81526004016107f1906137ea565b610892838383611b39565b60098054610b12906137b0565b80601f0160208091040260200160405190810160405280929190818152602001828054610b3e906137b0565b8015610b8b5780601f10610b6057610100808354040283529160200191610b8b565b820191906000526020600020905b815481529060010190602001808311610b6e57829003601f168201915b505050505081565b61089283838360405180602001604052806000815250611434565b600a8054610b12906137b0565b6000610bfe6040805160e0810190915280600081526020016000815260200160008152602001606081526020016060815260200160608152602001606081525090565b610c9b60118054610c0e906137b0565b80601f0160208091040260200160405190810160405280929190818152602001828054610c3a906137b0565b8015610c875780601f10610c5c57610100808354040283529160200191610c87565b820191906000526020600020905b815481529060010190602001808311610c6a57829003601f168201915b505050505082611c9d90919063ffffffff16565b8215610cb557610cb5610cae8486613837565b8290611caa565b610cea610cc182611cd4565b600c54600e54600f54600160a01b9092046001600160401b03169163ffffffff90911690611fac565b6008819055949350505050565b600d8054610b12906137b0565b60606000826001600160401b03811115610d2057610d2061319a565b604051908082528060200260200182016040528015610d5357816020015b6060815260200190600190039081610d3e5790505b50905060005b83811015610e9f5760126000868684818110610d7757610d77613771565b9050602002016020810190610d8c91906132c3565b6001600160a01b03166001600160a01b03168152602001908152602001600020805480602002602001604051908101604052809291908181526020016000905b82821015610e6b5760008481526020908190206040805160c08101825260058602909201805483526001810154938301939093526002808401549183019190915260038301546060830152600483015460ff8082161515608085015292939260a08501926101009092041690811115610e4757610e476132de565b6002811115610e5857610e586132de565b8152505081526020019060010190610dcc565b50505050828281518110610e8157610e81613771565b60200260200101819052508080610e97906138be565b915050610d59565b509392505050565b6000818152600260205260408120546001600160a01b03168061067d5760405162461bcd60e51b8152602060048201526018602482015277115490cdcc8c4e881a5b9d985b1a59081d1bdad95b88125160421b60448201526064016107f1565b6001600160a01b0381166000908152601260205260408120805484908110610f3157610f31613771565b906000526020600020906005020190508060030154471015610f8c5760405162461bcd60e51b8152602060048201526014602482015273496e73756666696369656e742062616c616e636560601b60448201526064016107f1565b60026004820154610100900460ff166002811115610fac57610fac6132de565b14610ff95760405162461bcd60e51b815260206004820152601c60248201527f5265736572766174696f6e206d7573742062652063616e63656c65640000000060448201526064016107f1565b600481015460ff166110585760405162461bcd60e51b815260206004820152602260248201527f5265736572766174696f6e206d757374206265207061696420746f20726566756044820152611b9960f21b60648201526084016107f1565b6003810154604051309180156108fc02916000818181858888f19350505050158015611088573d6000803e3d6000fd5b50505050565b6060600082516001600160401b038111156110ab576110ab61319a565b6040519080825280602002602001820160405280156110de57816020015b60608152602001906001900390816110c95790505b50905060005b835181101561113f5761110f84828151811061110257611102613771565b6020026020010151611562565b82828151811061112157611121613771565b60200260200101819052508080611137906138be565b9150506110e4565b5092915050565b6001600160a01b0381166000908152601260205260409020546111ab5760405162461bcd60e51b815260206004820152601f60248201527f5573657220646f6e2774206861766520616e79207265736572766174696f6e0060448201526064016107f1565b6001600160a01b03811660009081526012602052604081208054849081106111d5576111d5613771565b9060005260206000209060050201905042816002015410156111fc5761089281848461207e565b6108928184846120e8565b60006001600160a01b0382166112715760405162461bcd60e51b815260206004820152602960248201527f4552433732313a2061646472657373207a65726f206973206e6f7420612076616044820152683634b21037bbb732b960b91b60648201526084016107f1565b506001600160a01b031660009081526003602052604090205490565b611295612152565b61129f60006121ac565b565b3360009081526012602052604081208054849081106112c2576112c2613771565b90600052602060002090600502019050816001600160a01b0316336001600160a01b0316146113435760405162461bcd60e51b815260206004820152602760248201527f4f6e6c7920746865207265736572766174696f6e20686f6c6465722063616e2060448201526619195c1bdcda5d60ca1b60648201526084016107f1565b806003015434146113af5760405162461bcd60e51b815260206004820152603060248201527f4465706f7369742076616c7565206d75737420626520657175616c20746f207260448201526f65736572766174696f6e2076616c756560801b60648201526084016107f1565b600481015460ff16156114045760405162461bcd60e51b815260206004820152601860248201527f5265736572766174696f6e20616c72656164792070616964000000000000000060448201526064016107f1565b600401805460ff191660011790555050565b6060600180546106d3906137b0565b6114303383836121fe565b5050565b61143e3383611aba565b61145a5760405162461bcd60e51b81526004016107f1906137ea565b611088848484846122cc565b600061147562015180836138d7565b61067d90836138f9565b611487612152565b60006013600061149642611466565b8152602081019190915260400160002054111561129f5760005b601360006114bd42611466565b815260208101919091526040016000205481101561155f576000601360006114e442611466565b8152602001908152602001600020828154811061150357611503613771565b60009182526020918290206040805160608101825260039093029091018054835260018101546001600160a01b03169383018490526002015490820181905290925061154e91611146565b50611558816138be565b90506114b0565b50565b606061067d826122ff565b606060136000838152602001908152602001600020805480602002602001604051908101604052809291908181526020016000905b828210156109f25760008481526020908190206040805160608101825260038602909201805483526001808201546001600160a01b0316848601526002909101549183019190915290835290920191016115a2565b6115ff612152565b6001600160a01b0381166116645760405162461bcd60e51b815260206004820152602660248201527f4f776e61626c653a206e6577206f776e657220697320746865207a65726f206160448201526564647265737360d01b60648201526084016107f1565b61155f816121ac565b4283116116d05760405162461bcd60e51b815260206004820152602b60248201527f5265736572766174696f6e2074696d657374616d70206d75737420626520696e60448201526a207468652066757475726560a81b60648201526084016107f1565b803410156117325760405162461bcd60e51b815260206004820152602960248201527f496e73756666696369656e742066756e647320746f20636f766572206d696e74604482015268696e6720707269636560b81b60648201526084016107f1565b600082116117905760405162461bcd60e51b815260206004820152602560248201527f546f6c6572616e63652074696d65206d75737420626520677265617465722074604482015264068616e20360dc1b60648201526084016107f1565b600081116117f15760405162461bcd60e51b815260206004820152602860248201527f5265736572766174696f6e2076616c7565206d75737420626520677265617465604482015267072207468616e20360c41b60648201526084016107f1565b6001600160a01b0384166118405760405162461bcd60e51b8152602060048201526016602482015275496e7365727420612076616c6964206164647265737360501b60448201526064016107f1565b600061184b600b5490565b905061185b600b80546001019055565b6000611867848661379d565b90506118768287878487612407565b61188086836125c3565b61193082601060008154811061189857611898613771565b9060005260206000200180546118ad906137b0565b80601f01602080910402602001604051908101604052809291908181526020018280546118d9906137b0565b80156119265780601f106118fb57610100808354040283529160200191611926565b820191906000526020600020905b81548152906001019060200180831161190957829003601f168201915b50505050506125dd565b505050505050565b60006001600160e01b03198216632483248360e11b148061067d575061067d826126a8565b6000818152600260205260409020546001600160a01b031661155f5760405162461bcd60e51b8152602060048201526018602482015277115490cdcc8c4e881a5b9d985b1a59081d1bdad95b88125160421b60448201526064016107f1565b600081815260046020526040902080546001600160a01b0319166001600160a01b03841690811790915581906119f182610ea7565b6001600160a01b03167f8c5be1e5ebec7d5bd14f71427d1e84f3dd0314c0f7b2291e5b200ac8c7c3b92560405160405180910390a45050565b8260085414611a4f5760405163d068bf5b60e01b8152600481018490526024016107f1565b6009611a5b8382613952565b50600d611a688382613952565b50600a611a758282613952565b50827f160ed0aaffbef6885155188b91459cb5a97d5daadccf7561d8c46deea6641b50600d6009600a604051611aad93929190613a8e565b60405180910390a2505050565b600080611ac683610ea7565b9050806001600160a01b0316846001600160a01b03161480611b0d57506001600160a01b0380821660009081526005602090815260408083209388168352929052205460ff165b80611b315750836001600160a01b0316611b2684610756565b6001600160a01b0316145b949350505050565b826001600160a01b0316611b4c82610ea7565b6001600160a01b031614611b725760405162461bcd60e51b81526004016107f190613ad1565b6001600160a01b038216611bd45760405162461bcd60e51b8152602060048201526024808201527f4552433732313a207472616e7366657220746f20746865207a65726f206164646044820152637265737360e01b60648201526084016107f1565b826001600160a01b0316611be782610ea7565b6001600160a01b031614611c0d5760405162461bcd60e51b81526004016107f190613ad1565b600081815260046020908152604080832080546001600160a01b03199081169091556001600160a01b0387811680865260038552838620805460001901905590871680865283862080546001019055868652600290945282852080549092168417909155905184937fddf252ad1be2c89b69c2b068fc378daa952ba7f163c4a11628f55a4df523b3ef91a4505050565b61143082600080846126f8565b8051600003611ccc5760405163fe936cb760e01b815260040160405180910390fd5b60a090910152565b60606000611ce3610100612776565b9050611d1c6040518060400160405280600c81526020016b31b7b232a637b1b0ba34b7b760a11b8152508261279790919063ffffffff16565b8251611d3a906002811115611d3357611d336132de565b82906127b0565b6040805180820190915260088152676c616e677561676560c01b6020820152611d64908290612797565b6040830151611d7b908015611d3357611d336132de565b604080518082019091526006815265736f7572636560d01b6020820152611da3908290612797565b6060830151611db3908290612797565b60a08301515115611e47576040805180820190915260048152636172677360e01b6020820152611de4908290612797565b611ded816127e9565b60005b8360a0015151811015611e3d57611e2d8460a001518281518110611e1657611e16613771565b60200260200101518361279790919063ffffffff16565b611e36816138be565b9050611df0565b50611e478161280d565b60808301515115611f0b57600083602001516002811115611e6a57611e6a6132de565b03611e885760405163a80d31f760e01b815260040160405180910390fd5b60408051808201909152600f81526e39b2b1b932ba39a637b1b0ba34b7b760891b6020820152611eb9908290612797565b611ed283602001516002811115611d3357611d336132de565b6040805180820190915260078152667365637265747360c81b6020820152611efb908290612797565b6080830151611f0b90829061282b565b60c08301515115611fa45760408051808201909152600981526862797465734172677360b81b6020820152611f41908290612797565b611f4a816127e9565b60005b8360c0015151811015611f9a57611f8a8460c001518281518110611f7357611f73613771565b60200260200101518361282b90919063ffffffff16565b611f93816138be565b9050611f4d565b50611fa48161280d565b515192915050565b6000807f00000000000000000000000000000000000000000000000000000000000000006001600160a01b031663461d27628688600188886040518663ffffffff1660e01b8152600401612004959493929190613b16565b6020604051808303816000875af1158015612023573d6000803e3d6000fd5b505050506040513d601f19601f820116820180604052508101906120479190613b5f565b60405190915081907f1131472297a800fee664d1d89cfa8f7676ff07189ecc53f80bbb5f4969099db890600090a295945050505050565b60048301805461ff001916610200179055601080546120aa918491600290811061189857611898613771565b806001600160a01b03167f8d9f1123a8981d98a55c522cc3546e151e783d36ac86b4006002457d90f8a97d83600242604051611aad93929190613b78565b60048301805461ff00191661010017905560108054612114918491600190811061189857611898613771565b806001600160a01b03167f30a03041ed7a449393aa7cc4ba9869de14da67712db4676032bf3ca8f02a573483600142604051611aad93929190613b78565b6007546001600160a01b0316331461129f5760405162461bcd60e51b815260206004820181905260248201527f4f776e61626c653a2063616c6c6572206973206e6f7420746865206f776e657260448201526064016107f1565b600780546001600160a01b038381166001600160a01b0319831681179093556040519116919082907f8be0079c531659141344cd1fd0a4f28419497f9722a3daafe3b4186f6b6457e090600090a35050565b816001600160a01b0316836001600160a01b03160361225f5760405162461bcd60e51b815260206004820152601960248201527f4552433732313a20617070726f766520746f2063616c6c65720000000000000060448201526064016107f1565b6001600160a01b03838116600081815260056020908152604080832094871680845294825291829020805460ff191686151590811790915591519182527f17307eab39ab6107e8899845ad3d59bd9653f200f220920489ca2b5937696c31910160405180910390a3505050565b6122d7848484611b39565b6122e384848484612838565b6110885760405162461bcd60e51b81526004016107f190613b9a565b606061230a8261195d565b60008281526006602052604081208054612323906137b0565b80601f016020809104026020016040519081016040528092919081815260200182805461234f906137b0565b801561239c5780601f106123715761010080835404028352916020019161239c565b820191906000526020600020905b81548152906001019060200180831161237f57829003601f168201915b5050505050905060006123ba60408051602081019091526000815290565b905080516000036123cc575092915050565b8151156123fe5780826040516020016123e6929190613bec565b60405160208183030381529060405292505050919050565b611b3184612936565b60006040518060c0016040528087815260200185815260200184815260200183815260200160001515815260200160006002811115612448576124486132de565b90526001600160a01b0386166000908152601260209081526040808320805460018181018355918552938390208551600590950201938455918401519183019190915582015160028083019190915560608301516003830155608083015160048301805491151560ff1983168117825560a0860151959650869593919261ff001990911661ffff1990911617906101009084908111156124ea576124ea6132de565b0217905550505060006124fc85611466565b60408051606080820183528882526001600160a01b038a811660208085018281528587018f8152600089815260138452888120805460018082018355918352918590208951600390930201918255925192810180546001600160a01b0319169390961692909217909455925160029093019290925584518d81529182018b9052938101899052908101879052929350917fd01f867d86932c2cfdf1045c284accdcb8565dd727d22f81bae60d43be7a0ab39060800160405180910390a25050505050505050565b6114308282604051806020016040528060008152506129aa565b6000828152600260205260409020546001600160a01b03166126585760405162461bcd60e51b815260206004820152602e60248201527f45524337323155524953746f726167653a2055524920736574206f66206e6f6e60448201526d32bc34b9ba32b73a103a37b5b2b760911b60648201526084016107f1565b60008281526006602052604090206126708282613952565b506040518281527ff8e1a15aba9398e019f0b49df1a4fde98ee17ae345cb5f6b5e2c27f5033e8ce79060200160405180910390a15050565b60006001600160e01b031982166380ac58cd60e01b14806126d957506001600160e01b03198216635b5e139f60e01b145b8061067d57506301ffc9a760e01b6001600160e01b031983161461067d565b805160000361271a576040516322ce3edd60e01b815260040160405180910390fd5b8383600281111561272d5761272d6132de565b90816002811115612740576127406132de565b90525060408401828015612756576127566132de565b90818015612766576127666132de565b9052506060909301929092525050565b61277e613070565b805161278a90836129dd565b5060006020820152919050565b6127a48260038351612a54565b81516108929082612b6d565b81516127bd9060c2612b8e565b5061143082826040516020016127d591815260200190565b60405160208183030381529060405261282b565b6127f4816004612bf7565b600181602001818151612807919061379d565b90525050565b612818816007612bf7565b60018160200181815161280791906138f9565b6127a48260028351612a54565b60006001600160a01b0384163b1561292e57604051630a85bd0160e11b81526001600160a01b0385169063150b7a029061287c903390899088908890600401613c1b565b6020604051808303816000875af19250505080156128b7575060408051601f3d908101601f191682019092526128b491810190613c4e565b60015b612914573d8080156128e5576040519150601f19603f3d011682016040523d82523d6000602084013e6128ea565b606091505b50805160000361290c5760405162461bcd60e51b81526004016107f190613b9a565b805181602001fd5b6001600160e01b031916630a85bd0160e11b149050611b31565b506001611b31565b60606129418261195d565b600061295860408051602081019091526000815290565b9050600081511161297857604051806020016040528060008152506129a3565b8061298284612c0e565b604051602001612993929190613bec565b6040516020818303038152906040525b9392505050565b6129b48383612ca0565b6129c16000848484612838565b6108925760405162461bcd60e51b81526004016107f190613b9a565b6040805180820190915260608152600060208201526129fd6020836138d7565b15612a2557612a0d6020836138d7565b612a189060206138f9565b612a22908361379d565b91505b602080840183905260405180855260008152908184010181811015612a4957600080fd5b604052509192915050565b6017816001600160401b031611612a7a5782516110889060e0600585901b168317612b8e565b60ff816001600160401b031611612aba578251612aa2906018611fe0600586901b1617612b8e565b508251611088906001600160401b0383166001612e2b565b61ffff816001600160401b031611612afb578251612ae3906019611fe0600586901b1617612b8e565b508251611088906001600160401b0383166002612e2b565b63ffffffff816001600160401b031611612b3e578251612b2690601a611fe0600586901b1617612b8e565b508251611088906001600160401b0383166004612e2b565b8251612b5590601b611fe0600586901b1617612b8e565b508251611088906001600160401b0383166008612e2b565b6040805180820190915260608152600060208201526129a383838451612eb0565b6040805180820190915260608152600060208201528251516000612bb382600161379d565b905084602001518210612bd457612bd485612bcf836002613c6b565b612f81565b8451602083820101858153508051821115612bed578181525b5093949350505050565b815161089290601f611fe0600585901b1617612b8e565b60606000612c1b83612f98565b60010190506000816001600160401b03811115612c3a57612c3a61319a565b6040519080825280601f01601f191660200182016040528015612c64576020820181803683370190505b5090508181016020015b600019016f181899199a1a9b1b9c1cb0b131b232b360811b600a86061a8153600a8504945084612c6e57509392505050565b6001600160a01b038216612cf65760405162461bcd60e51b815260206004820181905260248201527f4552433732313a206d696e7420746f20746865207a65726f206164647265737360448201526064016107f1565b6000818152600260205260409020546001600160a01b031615612d5b5760405162461bcd60e51b815260206004820152601c60248201527f4552433732313a20746f6b656e20616c7265616479206d696e7465640000000060448201526064016107f1565b6000818152600260205260409020546001600160a01b031615612dc05760405162461bcd60e51b815260206004820152601c60248201527f4552433732313a20746f6b656e20616c7265616479206d696e7465640000000060448201526064016107f1565b6001600160a01b038216600081815260036020908152604080832080546001019055848352600290915280822080546001600160a01b0319168417905551839291907fddf252ad1be2c89b69c2b068fc378daa952ba7f163c4a11628f55a4df523b3ef908290a45050565b6040805180820190915260608152600060208201528351516000612e4f828561379d565b90508560200151811115612e6c57612e6c86612bcf836002613c6b565b60006001612e7c86610100613d66565b612e8691906138f9565b90508651828101878319825116178152508051831115612ea4578281525b50959695505050505050565b6040805180820190915260608152600060208201528251821115612ed357600080fd5b8351516000612ee2848361379d565b90508560200151811115612eff57612eff86612bcf836002613c6b565b855180518382016020019160009180851115612f19578482525b505050602086015b60208610612f595780518252612f3860208361379d565b9150612f4560208261379d565b9050612f526020876138f9565b9550612f21565b51815160001960208890036101000a0190811690199190911617905250849150509392505050565b8151612f8d83836129dd565b506110888382612b6d565b60008072184f03e93ff9f4daa797ed6e38ed64bf6a1f0160401b8310612fd75772184f03e93ff9f4daa797ed6e38ed64bf6a1f0160401b830492506040015b6d04ee2d6d415b85acef81000000008310613003576d04ee2d6d415b85acef8100000000830492506020015b662386f26fc10000831061302157662386f26fc10000830492506010015b6305f5e1008310613039576305f5e100830492506008015b612710831061304d57612710830492506004015b6064831061305f576064830492506002015b600a831061067d5760010192915050565b6040518060400160405280613098604051806040016040528060608152602001600081525090565b8152602001600081525090565b6001600160e01b03198116811461155f57600080fd5b6000602082840312156130cd57600080fd5b81356129a3816130a5565b6000602082840312156130ea57600080fd5b5035919050565b60005b8381101561310c5781810151838201526020016130f4565b50506000910152565b6000815180845261312d8160208601602086016130f1565b601f01601f19169290920160200192915050565b6020815260006129a36020830184613115565b80356001600160a01b038116811461316b57600080fd5b919050565b6000806040838503121561318357600080fd5b61318c83613154565b946020939093013593505050565b634e487b7160e01b600052604160045260246000fd5b604051601f8201601f191681016001600160401b03811182821017156131d8576131d861319a565b604052919050565b60006001600160401b038311156131f9576131f961319a565b61320c601f8401601f19166020016131b0565b905082815283838301111561322057600080fd5b828260208301376000602084830101529392505050565b600082601f83011261324857600080fd5b6129a3838335602085016131e0565b60008060006060848603121561326c57600080fd5b8335925060208401356001600160401b038082111561328a57600080fd5b61329687838801613237565b935060408601359150808211156132ac57600080fd5b506132b986828701613237565b9150509250925092565b6000602082840312156132d557600080fd5b6129a382613154565b634e487b7160e01b600052602160045260246000fd5b6003811061331257634e487b7160e01b600052602160045260246000fd5b9052565b600081518084526020808501945080840160005b83811015613388578151805188528381015184890152604080820151908901526060808201519089015260808082015115159089015260a09081015190613373818a01836132f4565b505060c096909601959082019060010161332a565b509495945050505050565b6020815260006129a36020830184613316565b6000806000606084860312156133bb57600080fd5b6133c484613154565b92506133d260208501613154565b9150604084013590509250925092565b60008083601f8401126133f457600080fd5b5081356001600160401b0381111561340b57600080fd5b6020830191508360208260051b850101111561342657600080fd5b9250929050565b6000806020838503121561344057600080fd5b82356001600160401b0381111561345657600080fd5b613462858286016133e2565b90969095509350505050565b6000602080830181845280855180835260408601915060408160051b870101925083870160005b828110156134c357603f198886030184526134b1858351613316565b94509285019290850190600101613495565b5092979650505050505050565b600080604083850312156134e357600080fd5b823591506134f360208401613154565b90509250929050565b60006001600160401b038211156135155761351561319a565b5060051b60200190565b6000602080838503121561353257600080fd5b82356001600160401b0381111561354857600080fd5b8301601f8101851361355957600080fd5b803561356c613567826134fc565b6131b0565b81815260059190911b8201830190838101908783111561358b57600080fd5b928401925b828410156135a957833582529284019290840190613590565b979650505050505050565b6000602080830181845280855180835260408601915060408160051b870101925083870160005b828110156134c357603f198886030184526135f7858351613115565b945092850192908501906001016135db565b6000806040838503121561361c57600080fd5b61362583613154565b91506020830135801515811461363a57600080fd5b809150509250929050565b6000806000806080858703121561365b57600080fd5b61366485613154565b935061367260208601613154565b92506040850135915060608501356001600160401b0381111561369457600080fd5b6136a087828801613237565b91505092959194509250565b602080825282518282018190526000919060409081850190868401855b8281101561370157815180518552868101516001600160a01b03168786015285015185850152606090930192908501906001016136c9565b5091979650505050505050565b6000806040838503121561372157600080fd5b61372a83613154565b91506134f360208401613154565b6000806000806080858703121561374e57600080fd5b61375785613154565b966020860135965060408601359560600135945092505050565b634e487b7160e01b600052603260045260246000fd5b634e487b7160e01b600052601160045260246000fd5b8082018082111561067d5761067d613787565b600181811c908216806137c457607f821691505b6020821081036137e457634e487b7160e01b600052602260045260246000fd5b50919050565b6020808252602d908201527f4552433732313a2063616c6c6572206973206e6f7420746f6b656e206f776e6560408201526c1c881bdc88185c1c1c9bdd9959609a1b606082015260800190565b6000613845613567846134fc565b80848252602080830192508560051b85013681111561386357600080fd5b855b818110156138b25780356001600160401b038111156138845760008081fd5b870136601f8201126138965760008081fd5b6138a43682358684016131e0565b865250938201938201613865565b50919695505050505050565b6000600182016138d0576138d0613787565b5060010190565b6000826138f457634e487b7160e01b600052601260045260246000fd5b500690565b8181038181111561067d5761067d613787565b601f82111561089257600081815260208120601f850160051c810160208610156139335750805b601f850160051c820191505b818110156119305782815560010161393f565b81516001600160401b0381111561396b5761396b61319a565b61397f8161397984546137b0565b8461390c565b602080601f8311600181146139b4576000841561399c5750858301515b600019600386901b1c1916600185901b178555611930565b600085815260208120601f198616915b828110156139e3578886015182559484019460019091019084016139c4565b5085821015613a015787850151600019600388901b60f8161c191681555b5050505050600190811b01905550565b60008154613a1e816137b0565b808552602060018381168015613a3b5760018114613a5557613a83565b60ff1985168884015283151560051b880183019550613a83565b866000528260002060005b85811015613a7b5781548a8201860152908301908401613a60565b890184019650505b505050505092915050565b606081526000613aa16060830186613a11565b8281036020840152613ab38186613a11565b90508281036040840152613ac78185613a11565b9695505050505050565b60208082526025908201527f4552433732313a207472616e736665722066726f6d20696e636f72726563742060408201526437bbb732b960d91b606082015260800190565b6001600160401b038616815260a060208201526000613b3860a0830187613115565b61ffff9590951660408301525063ffffffff92909216606083015260809091015292915050565b600060208284031215613b7157600080fd5b5051919050565b83815260608101613b8c60208301856132f4565b826040830152949350505050565b60208082526032908201527f4552433732313a207472616e7366657220746f206e6f6e20455243373231526560408201527131b2b4bb32b91034b6b83632b6b2b73a32b960711b606082015260800190565b60008351613bfe8184602088016130f1565b835190830190613c128183602088016130f1565b01949350505050565b6001600160a01b0385811682528416602082015260408101839052608060608201819052600090613ac790830184613115565b600060208284031215613c6057600080fd5b81516129a3816130a5565b808202811582820484141761067d5761067d613787565b600181815b80851115613cbd578160001904821115613ca357613ca3613787565b80851615613cb057918102915b93841c9390800290613c87565b509250929050565b600082613cd45750600161067d565b81613ce15750600061067d565b8160018114613cf75760028114613d0157613d1d565b600191505061067d565b60ff841115613d1257613d12613787565b50506001821b61067d565b5060208310610133831016604e8410600b8410161715613d40575081810a61067d565b613d4a8383613c82565b8060001904821115613d5e57613d5e613787565b029392505050565b60006129a38383613cc556fea2646970667358221220666251b99a7ed07540e08d771ef12b9521fdc35be63a515f7db3483e41d6d43e64736f6c6343000814003368747470733a2f2f62616679626569617a7068716a6d366761706c7874677870746a79686b3371617532773576673273696a7770696a74713667746d6b696b687a78652e697066732e7733732e6c696e6b2f52657374617572616e745265736572766174696f6e2e6a736f6e636f6e7374207265736572766174696f6e4964203d20617267735b305d3b636f6e7374207265736572766174696f6e54696d657374616d70203d20617267735b315d3b636f6e7374207461626c654e756d626572203d20617267735b325d3b636f6e7374207265736572766174696f6e44617465203d20617267735b335d3b636f6e737420617069526573706f6e7365203d2061776169742046756e6374696f6e732e6d616b654874747052657175657374287b75726c3a206068747470733a2f2f6c696e6b617461626c652d79616e766963746f72736e732d70726f6a656374732e76657263656c2e6170702f6170692f7265736572766174696f6e73427949643f69643d247b7265736572766174696f6e49647d267265736572766174696f6e54696d657374616d703d247b7265736572766174696f6e54696d657374616d707d267461626c654e756d6265723d247b7461626c654e756d6265727d267265736572766174696f6e446174653d247b7265736572766174696f6e446174657d607d293b69662028617069526573706f6e73652e6572726f7229207b636f6e736f6c652e6572726f7228617069526573706f6e73652e6572726f72293b7468726f77206e6577204572726f72282752657175657374206661696c656427293b7d636f6e7374207b2064617461207d203d20617069526573706f6e73653b636f6e736f6c652e6c6f67282741504920726573706f6e736520646174613a272c204a534f4e2e737472696e6769667928646174612c206e756c6c2c203229293b636f6e737420656e636f64656454696d657374616d70203d2046756e6374696f6e732e656e636f6465537472696e6728646174612e7265736572766174696f6e54696d657374616d70293b636f6e737420656e636f6465645461626c654e756d626572203d2046756e6374696f6e732e656e636f6465537472696e6728646174612e7265736572766174696f6e5461626c654e756d626572293b72657475726e20656e636f64656454696d657374616d7068747470733a2f2f6261667962656961623369646f68646f6b6768647a6d6a61706f7965653368616f796c68697561656b70663673346776706d36647478696f616e712e697066732e7733732e6c696e6b2f52657374617572616e74526573657276616e74696f6e43616e63656c65642e6a736f6e68747470733a2f2f6261667962656961666f6d6c6b3565626574753464716a6d787a32717032787a653678636769723376336e6432786c7a336432686a6365327863752e697066732e7733732e6c696e6b2f52657374617572616e5265736572766174696f6e436865636b6564496e2e6a736f6ea2646970667358221220d44637ced9ccf52d04ee8f7e19ea00423d6a4f4b2901d428a4ae22b2df1bd2bc64736f6c63430008140033",
  "devdoc": {
    "author": "@YanVictorSN",
    "kind": "dev",
    "methods": {
      "owner()": {
        "details": "Returns the address of the current owner."
      },
      "renounceOwnership()": {
        "details": "Leaves the contract without owner. It will not be possible to call `onlyOwner` functions. Can only be called by the current owner. NOTE: Renouncing ownership will leave the contract without an owner, thereby disabling any functionality that is only available to the owner."
      },
      "revokeReservationContract(address)": {
        "params": {
          "contractAddress": "The address of the contract to revoke"
        }
      },
      "transferOwnership(address)": {
        "details": "Transfers ownership of the contract to a new account (`newOwner`). Can only be called by the current owner."
      }
    },
    "title": "Reservation Factory",
    "version": 1
  },
  "userdoc": {
    "events": {
      "ReservationContractDeployed(address,address,string)": {
        "notice": "Events///"
      }
    },
    "kind": "user",
    "methods": {
      "createReservationContract(string)": {
        "notice": "Creates a new Reservation contract for each company"
      },
      "deployedContracts(address)": {
        "notice": "Variables///"
      },
      "getAllContracts()": {
        "notice": "Returns all contracts deployed"
      },
      "getAllDeployedContracts()": {
        "notice": "Returns detailed information of all deployed contracts"
      },
      "revokeReservationContract(address)": {
        "notice": "Revokes a deployed reservation contract"
      }
    },
    "notice": "This contract is a factory for the Reservation NFTs",
    "version": 1
  },
  "storageLayout": {
    "storage": [
      {
        "astId": 2075,
        "contract": "contracts/ReservationFactory.sol:ReservationFactory",
        "label": "_owner",
        "offset": 0,
        "slot": "0",
        "type": "t_address"
      },
      {
        "astId": 6742,
        "contract": "contracts/ReservationFactory.sol:ReservationFactory",
        "label": "deployedContracts",
        "offset": 0,
        "slot": "1",
        "type": "t_mapping(t_address,t_struct(ReservationContract)6736_storage)"
      },
      {
        "astId": 6745,
        "contract": "contracts/ReservationFactory.sol:ReservationFactory",
        "label": "allContracts",
        "offset": 0,
        "slot": "2",
        "type": "t_array(t_address)dyn_storage"
      }
    ],
    "types": {
      "t_address": {
        "encoding": "inplace",
        "label": "address",
        "numberOfBytes": "20"
      },
      "t_array(t_address)dyn_storage": {
        "base": "t_address",
        "encoding": "dynamic_array",
        "label": "address[]",
        "numberOfBytes": "32"
      },
      "t_mapping(t_address,t_struct(ReservationContract)6736_storage)": {
        "encoding": "mapping",
        "key": "t_address",
        "label": "mapping(address => struct ReservationFactory.ReservationContract)",
        "numberOfBytes": "32",
        "value": "t_struct(ReservationContract)6736_storage"
      },
      "t_string_storage": {
        "encoding": "bytes",
        "label": "string",
        "numberOfBytes": "32"
      },
      "t_struct(ReservationContract)6736_storage": {
        "encoding": "inplace",
        "label": "struct ReservationFactory.ReservationContract",
        "members": [
          {
            "astId": 6731,
            "contract": "contracts/ReservationFactory.sol:ReservationFactory",
            "label": "companyAddress",
            "offset": 0,
            "slot": "0",
            "type": "t_address"
          },
          {
            "astId": 6733,
            "contract": "contracts/ReservationFactory.sol:ReservationFactory",
            "label": "contractAddress",
            "offset": 0,
            "slot": "1",
            "type": "t_address"
          },
          {
            "astId": 6735,
            "contract": "contracts/ReservationFactory.sol:ReservationFactory",
            "label": "companyName",
            "offset": 0,
            "slot": "2",
            "type": "t_string_storage"
          }
        ],
        "numberOfBytes": "96"
      }
    }
  }
}