{
  "address": "0x2Bc61fba63B35eB4E0Ebf3c60747dA100d7b0798",
  "abi": [
    {
      "inputs": [],
      "stateMutability": "nonpayable",
      "type": "constructor"
    },
    {
      "anonymous": false,
      "inputs": [
        {
          "indexed": true,
          "internalType": "address",
          "name": "owner",
          "type": "address"
        },
        {
          "indexed": true,
          "internalType": "address",
          "name": "approved",
          "type": "address"
        },
        {
          "indexed": true,
          "internalType": "uint256",
          "name": "tokenId",
          "type": "uint256"
        }
      ],
      "name": "Approval",
      "type": "event"
    },
    {
      "anonymous": false,
      "inputs": [
        {
          "indexed": true,
          "internalType": "address",
          "name": "owner",
          "type": "address"
        },
        {
          "indexed": true,
          "internalType": "address",
          "name": "operator",
          "type": "address"
        },
        {
          "indexed": false,
          "internalType": "bool",
          "name": "approved",
          "type": "bool"
        }
      ],
      "name": "ApprovalForAll",
      "type": "event"
    },
    {
      "anonymous": false,
      "inputs": [
        {
          "indexed": false,
          "internalType": "uint256",
          "name": "_fromTokenId",
          "type": "uint256"
        },
        {
          "indexed": false,
          "internalType": "uint256",
          "name": "_toTokenId",
          "type": "uint256"
        }
      ],
      "name": "BatchMetadataUpdate",
      "type": "event"
    },
    {
      "anonymous": false,
      "inputs": [
        {
          "indexed": false,
          "internalType": "uint256",
          "name": "_tokenId",
          "type": "uint256"
        }
      ],
      "name": "MetadataUpdate",
      "type": "event"
    },
    {
      "anonymous": false,
      "inputs": [
        {
          "indexed": true,
          "internalType": "address",
          "name": "previousOwner",
          "type": "address"
        },
        {
          "indexed": true,
          "internalType": "address",
          "name": "newOwner",
          "type": "address"
        }
      ],
      "name": "OwnershipTransferred",
      "type": "event"
    },
    {
      "anonymous": false,
      "inputs": [
        {
          "indexed": true,
          "internalType": "address",
          "name": "to",
          "type": "address"
        },
        {
          "indexed": false,
          "internalType": "uint256",
          "name": "tokenId",
          "type": "uint256"
        },
        {
          "indexed": false,
          "internalType": "enum Reservation.Status",
          "name": "status",
          "type": "uint8"
        },
        {
          "indexed": false,
          "internalType": "uint256",
          "name": "timestamp",
          "type": "uint256"
        }
      ],
      "name": "ReservationCanceled",
      "type": "event"
    },
    {
      "anonymous": false,
      "inputs": [
        {
          "indexed": true,
          "internalType": "address",
          "name": "to",
          "type": "address"
        },
        {
          "indexed": false,
          "internalType": "uint256",
          "name": "tokenId",
          "type": "uint256"
        },
        {
          "indexed": false,
          "internalType": "enum Reservation.Status",
          "name": "status",
          "type": "uint8"
        },
        {
          "indexed": false,
          "internalType": "uint256",
          "name": "timestamp",
          "type": "uint256"
        }
      ],
      "name": "ReservationChecked",
      "type": "event"
    },
    {
      "anonymous": false,
      "inputs": [
        {
          "indexed": false,
          "internalType": "uint256",
          "name": "tokenId",
          "type": "uint256"
        },
        {
          "indexed": true,
          "internalType": "address",
          "name": "to",
          "type": "address"
        },
        {
          "indexed": false,
          "internalType": "uint256",
          "name": "reservationTimestamp",
          "type": "uint256"
        },
        {
          "indexed": false,
          "internalType": "uint256",
          "name": "toleranceTime",
          "type": "uint256"
        },
        {
          "indexed": false,
          "internalType": "uint256",
          "name": "reservationValue",
          "type": "uint256"
        }
      ],
      "name": "ReservationDataAdded",
      "type": "event"
    },
    {
      "anonymous": false,
      "inputs": [
        {
          "indexed": true,
          "internalType": "address",
          "name": "from",
          "type": "address"
        },
        {
          "indexed": true,
          "internalType": "address",
          "name": "to",
          "type": "address"
        },
        {
          "indexed": true,
          "internalType": "uint256",
          "name": "tokenId",
          "type": "uint256"
        }
      ],
      "name": "Transfer",
      "type": "event"
    },
    {
      "inputs": [
        {
          "internalType": "address",
          "name": "to",
          "type": "address"
        },
        {
          "internalType": "uint256",
          "name": "tokenId",
          "type": "uint256"
        }
      ],
      "name": "approve",
      "outputs": [],
      "stateMutability": "nonpayable",
      "type": "function"
    },
    {
      "inputs": [
        {
          "internalType": "address",
          "name": "owner",
          "type": "address"
        }
      ],
      "name": "balanceOf",
      "outputs": [
        {
          "internalType": "uint256",
          "name": "",
          "type": "uint256"
        }
      ],
      "stateMutability": "view",
      "type": "function"
    },
    {
      "inputs": [],
      "name": "checkAllDailyReservation",
      "outputs": [],
      "stateMutability": "nonpayable",
      "type": "function"
    },
    {
      "inputs": [
        {
          "internalType": "uint256",
          "name": "tokenId",
          "type": "uint256"
        },
        {
          "internalType": "address",
          "name": "userAddress",
          "type": "address"
        }
      ],
      "name": "checkDailyReservation",
      "outputs": [],
      "stateMutability": "nonpayable",
      "type": "function"
    },
    {
      "inputs": [
        {
          "internalType": "uint256",
          "name": "reservationId",
          "type": "uint256"
        },
        {
          "internalType": "address",
          "name": "userAddress",
          "type": "address"
        }
      ],
      "name": "depositReservationValue",
      "outputs": [],
      "stateMutability": "payable",
      "type": "function"
    },
    {
      "inputs": [
        {
          "internalType": "uint256",
          "name": "tokenId",
          "type": "uint256"
        }
      ],
      "name": "getApproved",
      "outputs": [
        {
          "internalType": "address",
          "name": "",
          "type": "address"
        }
      ],
      "stateMutability": "view",
      "type": "function"
    },
    {
      "inputs": [
        {
          "internalType": "uint256",
          "name": "_tokenId",
          "type": "uint256"
        }
      ],
      "name": "getDateMaxToTrade",
      "outputs": [
        {
          "internalType": "uint256",
          "name": "",
          "type": "uint256"
        }
      ],
      "stateMutability": "view",
      "type": "function"
    },
    {
      "inputs": [
        {
          "internalType": "address[]",
          "name": "addresses",
          "type": "address[]"
        }
      ],
      "name": "getReservationTokensByAddresses",
      "outputs": [
        {
          "components": [
            {
              "internalType": "uint256",
              "name": "reservationId",
              "type": "uint256"
            },
            {
              "internalType": "uint256",
              "name": "reservationTimestamp",
              "type": "uint256"
            },
            {
              "internalType": "uint256",
              "name": "toleranceTime",
              "type": "uint256"
            },
            {
              "internalType": "uint256",
              "name": "reservationValue",
              "type": "uint256"
            },
            {
              "internalType": "bool",
              "name": "reservationPayment",
              "type": "bool"
            },
            {
              "internalType": "enum Reservation.Status",
              "name": "status",
              "type": "uint8"
            }
          ],
          "internalType": "struct Reservation.ReservationData[][]",
          "name": "",
          "type": "tuple[][]"
        }
      ],
      "stateMutability": "view",
      "type": "function"
    },
    {
      "inputs": [
        {
          "internalType": "address",
          "name": "_userAddress",
          "type": "address"
        }
      ],
      "name": "getReservations",
      "outputs": [
        {
          "components": [
            {
              "internalType": "uint256",
              "name": "reservationId",
              "type": "uint256"
            },
            {
              "internalType": "uint256",
              "name": "reservationTimestamp",
              "type": "uint256"
            },
            {
              "internalType": "uint256",
              "name": "toleranceTime",
              "type": "uint256"
            },
            {
              "internalType": "uint256",
              "name": "reservationValue",
              "type": "uint256"
            },
            {
              "internalType": "bool",
              "name": "reservationPayment",
              "type": "bool"
            },
            {
              "internalType": "enum Reservation.Status",
              "name": "status",
              "type": "uint8"
            }
          ],
          "internalType": "struct Reservation.ReservationData[]",
          "name": "",
          "type": "tuple[]"
        }
      ],
      "stateMutability": "view",
      "type": "function"
    },
    {
      "inputs": [
        {
          "internalType": "uint256",
          "name": "_dayTimestamp",
          "type": "uint256"
        }
      ],
      "name": "getReservationsByDay",
      "outputs": [
        {
          "components": [
            {
              "internalType": "uint256",
              "name": "reservationTimestamp",
              "type": "uint256"
            },
            {
              "internalType": "address",
              "name": "userAddress",
              "type": "address"
            },
            {
              "internalType": "uint256",
              "name": "reservationId",
              "type": "uint256"
            }
          ],
          "internalType": "struct Reservation.ReservationByDay[]",
          "name": "",
          "type": "tuple[]"
        }
      ],
      "stateMutability": "view",
      "type": "function"
    },
    {
      "inputs": [
        {
          "internalType": "uint256",
          "name": "_reservationTimestamp",
          "type": "uint256"
        }
      ],
      "name": "getStartOfDayTimestamp",
      "outputs": [
        {
          "internalType": "uint256",
          "name": "",
          "type": "uint256"
        }
      ],
      "stateMutability": "pure",
      "type": "function"
    },
    {
      "inputs": [
        {
          "internalType": "address",
          "name": "_userAddress",
          "type": "address"
        }
      ],
      "name": "getTokenData",
      "outputs": [
        {
          "components": [
            {
              "internalType": "uint256",
              "name": "reservationId",
              "type": "uint256"
            },
            {
              "internalType": "uint256",
              "name": "reservationTimestamp",
              "type": "uint256"
            },
            {
              "internalType": "uint256",
              "name": "toleranceTime",
              "type": "uint256"
            },
            {
              "internalType": "uint256",
              "name": "reservationValue",
              "type": "uint256"
            },
            {
              "internalType": "bool",
              "name": "reservationPayment",
              "type": "bool"
            },
            {
              "internalType": "enum Reservation.Status",
              "name": "status",
              "type": "uint8"
            }
          ],
          "internalType": "struct Reservation.ReservationData[]",
          "name": "",
          "type": "tuple[]"
        }
      ],
      "stateMutability": "view",
      "type": "function"
    },
    {
      "inputs": [
        {
          "internalType": "address",
          "name": "owner",
          "type": "address"
        },
        {
          "internalType": "address",
          "name": "operator",
          "type": "address"
        }
      ],
      "name": "isApprovedForAll",
      "outputs": [
        {
          "internalType": "bool",
          "name": "",
          "type": "bool"
        }
      ],
      "stateMutability": "view",
      "type": "function"
    },
    {
      "inputs": [],
      "name": "name",
      "outputs": [
        {
          "internalType": "string",
          "name": "",
          "type": "string"
        }
      ],
      "stateMutability": "view",
      "type": "function"
    },
    {
      "inputs": [],
      "name": "owner",
      "outputs": [
        {
          "internalType": "address",
          "name": "",
          "type": "address"
        }
      ],
      "stateMutability": "view",
      "type": "function"
    },
    {
      "inputs": [
        {
          "internalType": "uint256",
          "name": "tokenId",
          "type": "uint256"
        }
      ],
      "name": "ownerOf",
      "outputs": [
        {
          "internalType": "address",
          "name": "",
          "type": "address"
        }
      ],
      "stateMutability": "view",
      "type": "function"
    },
    {
      "inputs": [
        {
          "internalType": "uint256",
          "name": "reservationId",
          "type": "uint256"
        },
        {
          "internalType": "address",
          "name": "userAddress",
          "type": "address"
        }
      ],
      "name": "refundForNotCheckIn",
      "outputs": [],
      "stateMutability": "nonpayable",
      "type": "function"
    },
    {
      "inputs": [],
      "name": "renounceOwnership",
      "outputs": [],
      "stateMutability": "nonpayable",
      "type": "function"
    },
    {
      "inputs": [
        {
          "internalType": "address",
          "name": "minterAddress",
          "type": "address"
        },
        {
          "internalType": "uint256",
          "name": "reservationTimestamp",
          "type": "uint256"
        },
        {
          "internalType": "uint256",
          "name": "reservationToleranceTime",
          "type": "uint256"
        },
        {
          "internalType": "uint256",
          "name": "reservationValue",
          "type": "uint256"
        }
      ],
      "name": "safeMint",
      "outputs": [],
      "stateMutability": "nonpayable",
      "type": "function"
    },
    {
      "inputs": [
        {
          "internalType": "address",
          "name": "from",
          "type": "address"
        },
        {
          "internalType": "address",
          "name": "to",
          "type": "address"
        },
        {
          "internalType": "uint256",
          "name": "tokenId",
          "type": "uint256"
        }
      ],
      "name": "safeTransferFrom",
      "outputs": [],
      "stateMutability": "nonpayable",
      "type": "function"
    },
    {
      "inputs": [
        {
          "internalType": "address",
          "name": "from",
          "type": "address"
        },
        {
          "internalType": "address",
          "name": "to",
          "type": "address"
        },
        {
          "internalType": "uint256",
          "name": "tokenId",
          "type": "uint256"
        },
        {
          "internalType": "bytes",
          "name": "data",
          "type": "bytes"
        }
      ],
      "name": "safeTransferFrom",
      "outputs": [],
      "stateMutability": "nonpayable",
      "type": "function"
    },
    {
      "inputs": [
        {
          "internalType": "address",
          "name": "operator",
          "type": "address"
        },
        {
          "internalType": "bool",
          "name": "approved",
          "type": "bool"
        }
      ],
      "name": "setApprovalForAll",
      "outputs": [],
      "stateMutability": "nonpayable",
      "type": "function"
    },
    {
      "inputs": [
        {
          "internalType": "bytes4",
          "name": "interfaceId",
          "type": "bytes4"
        }
      ],
      "name": "supportsInterface",
      "outputs": [
        {
          "internalType": "bool",
          "name": "",
          "type": "bool"
        }
      ],
      "stateMutability": "view",
      "type": "function"
    },
    {
      "inputs": [],
      "name": "symbol",
      "outputs": [
        {
          "internalType": "string",
          "name": "",
          "type": "string"
        }
      ],
      "stateMutability": "view",
      "type": "function"
    },
    {
      "inputs": [
        {
          "internalType": "uint256",
          "name": "tokenId",
          "type": "uint256"
        }
      ],
      "name": "tokenURI",
      "outputs": [
        {
          "internalType": "string",
          "name": "",
          "type": "string"
        }
      ],
      "stateMutability": "view",
      "type": "function"
    },
    {
      "inputs": [
        {
          "internalType": "uint256[]",
          "name": "tokenIds",
          "type": "uint256[]"
        }
      ],
      "name": "tokenURIs",
      "outputs": [
        {
          "internalType": "string[]",
          "name": "",
          "type": "string[]"
        }
      ],
      "stateMutability": "view",
      "type": "function"
    },
    {
      "inputs": [
        {
          "internalType": "address",
          "name": "from",
          "type": "address"
        },
        {
          "internalType": "address",
          "name": "to",
          "type": "address"
        },
        {
          "internalType": "uint256",
          "name": "tokenId",
          "type": "uint256"
        }
      ],
      "name": "transferFrom",
      "outputs": [],
      "stateMutability": "nonpayable",
      "type": "function"
    },
    {
      "inputs": [
        {
          "internalType": "address",
          "name": "newOwner",
          "type": "address"
        }
      ],
      "name": "transferOwnership",
      "outputs": [],
      "stateMutability": "nonpayable",
      "type": "function"
    }
  ],
  "transactionHash": "0xc91d4376165e760b5d4cac97cf46b4d6ae724b5c81380a5148147db14891cf7e",
  "args": [],
  "numDeployments": 1,
  "solcInputHash": "f79d3333bb69175de46c677fd6d9a393",
  "bytecode": "0x610180604052606c60e0818152608091829190620031306101003981526020016040518060a0016040528060748152602001620032116074913981526020016040518060a00160405280607581526020016200319c6075913990526200006a9060099060036200014e565b503480156200007857600080fd5b50604051806040016040528060078152602001665265736572766560c81b815250604051806040016040528060038152602001622929ab60e91b8152508160009081620000c69190620002ca565b506001620000d58282620002ca565b505050620000f2620000ec620000f860201b60201c565b620000fc565b62000396565b3390565b600780546001600160a01b038381166001600160a01b0319831681179093556040519116919082907f8be0079c531659141344cd1fd0a4f28419497f9722a3daafe3b4186f6b6457e090600090a35050565b82805482825590600052602060002090810192821562000199579160200282015b82811115620001995782518290620001889082620002ca565b50916020019190600101906200016f565b50620001a7929150620001ab565b5090565b80821115620001a7576000620001c28282620001cc565b50600101620001ab565b508054620001da906200023b565b6000825580601f10620001eb575050565b601f0160209004906000526020600020908101906200020b91906200020e565b50565b5b80821115620001a757600081556001016200020f565b634e487b7160e01b600052604160045260246000fd5b600181811c908216806200025057607f821691505b6020821081036200027157634e487b7160e01b600052602260045260246000fd5b50919050565b601f821115620002c557600081815260208120601f850160051c81016020861015620002a05750805b601f850160051c820191505b81811015620002c157828155600101620002ac565b5050505b505050565b81516001600160401b03811115620002e657620002e662000225565b620002fe81620002f784546200023b565b8462000277565b602080601f8311600181146200033657600084156200031d5750858301515b600019600386901b1c1916600185901b178555620002c1565b600085815260208120601f198616915b82811015620003675788860151825594840194600190910190840162000346565b5085821015620003865787850151600019600388901b60f8161c191681555b5050505050600190811b01905550565b612d8a80620003a66000396000f3fe6080604052600436106101b75760003560e01c806370a08231116100ec578063b9d3ab841161008a578063cfb5a92111610064578063cfb5a921146104f2578063e985e9c51461051f578063f2fde38b14610568578063faa07ec11461058857600080fd5b8063b9d3ab841461049d578063bd4cf350146104bd578063c87b56dd146104d257600080fd5b80638da5cb5b116100c65780638da5cb5b1461042a57806395d89b4114610448578063a22cb4651461045d578063b88d4fde1461047d57600080fd5b806370a08231146103e2578063715018a6146104025780638d75aed61461041757600080fd5b806323b872dd116101595780636352211e116101335780636352211e14610355578063642521c5146103755780636cc8d8cf146103955780636ff3043c146103c257600080fd5b806323b872dd146102e857806342842e0e1461030857806357b6f1a11461032857600080fd5b8063081812fc11610195578063081812fc14610241578063095ea7b314610279578063132a98c01461029b57806313ff7e9f146102c857600080fd5b806301ffc9a7146101bc5780630377153f146101f157806306fdde031461021f575b600080fd5b3480156101c857600080fd5b506101dc6101d73660046123b6565b6105a8565b60405190151581526020015b60405180910390f35b3480156101fd57600080fd5b5061021161020c3660046123d3565b6105b9565b6040519081526020016101e8565b34801561022b57600080fd5b506102346105fa565b6040516101e8919061243c565b34801561024d57600080fd5b5061026161025c3660046123d3565b61068c565b6040516001600160a01b0390911681526020016101e8565b34801561028557600080fd5b5061029961029436600461246b565b6106b3565b005b3480156102a757600080fd5b506102bb6102b6366004612495565b6107cd565b6040516101e89190612533565b3480156102d457600080fd5b506102bb6102e3366004612495565b6108af565b3480156102f457600080fd5b5061029961030336600461257c565b610986565b34801561031457600080fd5b5061029961032336600461257c565b6109b7565b34801561033457600080fd5b506103486103433660046125b8565b6109d2565b6040516101e8919061262d565b34801561036157600080fd5b506102616103703660046123d3565b610b76565b34801561038157600080fd5b506102996103903660046126bc565b610bd6565b3480156103a157600080fd5b506103b56103b036600461272f565b610d5d565b6040516101e891906127d5565b3480156103ce57600080fd5b506102996103dd3660046126bc565b610e16565b3480156103ee57600080fd5b506102116103fd366004612495565b610ed7565b34801561040e57600080fd5b50610299610f5d565b6102996104253660046126bc565b610f71565b34801561043657600080fd5b506007546001600160a01b0316610261565b34801561045457600080fd5b506102346110e6565b34801561046957600080fd5b50610299610478366004612837565b6110f5565b34801561048957600080fd5b50610299610498366004612873565b611104565b3480156104a957600080fd5b506102116104b83660046123d3565b611136565b3480156104c957600080fd5b5061029961114f565b3480156104de57600080fd5b506102346104ed3660046123d3565b611232565b3480156104fe57600080fd5b5061051261050d3660046123d3565b61123d565b6040516101e89190612933565b34801561052b57600080fd5b506101dc61053a366004612995565b6001600160a01b03918216600090815260056020908152604080832093909416825291909152205460ff1690565b34801561057457600080fd5b50610299610583366004612495565b6112c7565b34801561059457600080fd5b506102996105a33660046129bf565b61133d565b60006105b3826115a6565b92915050565b336000908152600a602052604081208054839081106105da576105da6129f8565b90600052602060002090600502016001015462278d006105b39190612a24565b60606000805461060990612a37565b80601f016020809104026020016040519081016040528092919081815260200182805461063590612a37565b80156106825780601f1061065757610100808354040283529160200191610682565b820191906000526020600020905b81548152906001019060200180831161066557829003601f168201915b5050505050905090565b6000610697826115cb565b506000908152600460205260409020546001600160a01b031690565b60006106be82610b76565b9050806001600160a01b0316836001600160a01b0316036107305760405162461bcd60e51b815260206004820152602160248201527f4552433732313a20617070726f76616c20746f2063757272656e74206f776e656044820152603960f91b60648201526084015b60405180910390fd5b336001600160a01b038216148061074c575061074c813361053a565b6107be5760405162461bcd60e51b815260206004820152603d60248201527f4552433732313a20617070726f76652063616c6c6572206973206e6f7420746f60448201527f6b656e206f776e6572206f7220617070726f76656420666f7220616c6c0000006064820152608401610727565b6107c8838361162a565b505050565b6001600160a01b0381166000908152600a60209081526040808320805482518185028101850190935280835260609492939192909184015b828210156108a45760008481526020908190206040805160c08101825260058602909201805483526001810154938301939093526002808401549183019190915260038301546060830152600483015460ff8082161515608085015292939260a08501926101009092041690811115610880576108806124b0565b6002811115610891576108916124b0565b8152505081526020019060010190610805565b505050509050919050565b6001600160a01b0381166000908152600a60209081526040808320805482518185028101850190935280835260609492939192909184015b828210156108a45760008481526020908190206040805160c08101825260058602909201805483526001810154938301939093526002808401549183019190915260038301546060830152600483015460ff8082161515608085015292939260a08501926101009092041690811115610962576109626124b0565b6002811115610973576109736124b0565b81525050815260200190600101906108e7565b6109903382611698565b6109ac5760405162461bcd60e51b815260040161072790612a71565b6107c8838383611717565b6107c883838360405180602001604052806000815250611104565b606060008267ffffffffffffffff8111156109ef576109ef6126e8565b604051908082528060200260200182016040528015610a2257816020015b6060815260200190600190039081610a0d5790505b50905060005b83811015610b6e57600a6000868684818110610a4657610a466129f8565b9050602002016020810190610a5b9190612495565b6001600160a01b03166001600160a01b03168152602001908152602001600020805480602002602001604051908101604052809291908181526020016000905b82821015610b3a5760008481526020908190206040805160c08101825260058602909201805483526001810154938301939093526002808401549183019190915260038301546060830152600483015460ff8082161515608085015292939260a08501926101009092041690811115610b1657610b166124b0565b6002811115610b2757610b276124b0565b8152505081526020019060010190610a9b565b50505050828281518110610b5057610b506129f8565b60200260200101819052508080610b6690612abe565b915050610a28565b509392505050565b6000818152600260205260408120546001600160a01b0316806105b35760405162461bcd60e51b8152602060048201526018602482015277115490cdcc8c4e881a5b9d985b1a59081d1bdad95b88125160421b6044820152606401610727565b6001600160a01b0381166000908152600a60205260408120805484908110610c0057610c006129f8565b906000526020600020906005020190508060030154471015610c5b5760405162461bcd60e51b8152602060048201526014602482015273496e73756666696369656e742062616c616e636560601b6044820152606401610727565b60026004820154610100900460ff166002811115610c7b57610c7b6124b0565b14610cc85760405162461bcd60e51b815260206004820152601c60248201527f5265736572766174696f6e206d7573742062652063616e63656c6564000000006044820152606401610727565b600481015460ff16610d275760405162461bcd60e51b815260206004820152602260248201527f5265736572766174696f6e206d757374206265207061696420746f20726566756044820152611b9960f21b6064820152608401610727565b6003810154604051309180156108fc02916000818181858888f19350505050158015610d57573d6000803e3d6000fd5b50505050565b60606000825167ffffffffffffffff811115610d7b57610d7b6126e8565b604051908082528060200260200182016040528015610dae57816020015b6060815260200190600190039081610d995790505b50905060005b8351811015610e0f57610ddf848281518110610dd257610dd26129f8565b6020026020010151611232565b828281518110610df157610df16129f8565b60200260200101819052508080610e0790612abe565b915050610db4565b5092915050565b6001600160a01b0381166000908152600a6020526040902054610e7b5760405162461bcd60e51b815260206004820152601f60248201527f5573657220646f6e2774206861766520616e79207265736572766174696f6e006044820152606401610727565b6001600160a01b0381166000908152600a60205260408120805484908110610ea557610ea56129f8565b906000526020600020906005020190504281600201541015610ecc576107c881848461187b565b6107c88184846118f2565b60006001600160a01b038216610f415760405162461bcd60e51b815260206004820152602960248201527f4552433732313a2061646472657373207a65726f206973206e6f7420612076616044820152683634b21037bbb732b960b91b6064820152608401610727565b506001600160a01b031660009081526003602052604090205490565b610f6561195c565b610f6f60006119b6565b565b336000908152600a60205260408120805484908110610f9257610f926129f8565b90600052602060002090600502019050816001600160a01b0316336001600160a01b0316146110135760405162461bcd60e51b815260206004820152602760248201527f4f6e6c7920746865207265736572766174696f6e20686f6c6465722063616e2060448201526619195c1bdcda5d60ca1b6064820152608401610727565b8060030154341461107f5760405162461bcd60e51b815260206004820152603060248201527f4465706f7369742076616c7565206d75737420626520657175616c20746f207260448201526f65736572766174696f6e2076616c756560801b6064820152608401610727565b600481015460ff16156110d45760405162461bcd60e51b815260206004820152601860248201527f5265736572766174696f6e20616c7265616479207061696400000000000000006044820152606401610727565b600401805460ff191660011790555050565b60606001805461060990612a37565b611100338383611a08565b5050565b61110e3383611698565b61112a5760405162461bcd60e51b815260040161072790612a71565b610d5784848484611ad6565b60006111456201518083612ad7565b6105b39083612af9565b61115761195c565b6000600b600061116642611136565b81526020810191909152604001600020541115610f6f5760005b600b600061118d42611136565b815260208101919091526040016000205481101561122f576000600b60006111b442611136565b815260200190815260200160002082815481106111d3576111d36129f8565b60009182526020918290206040805160608101825260039093029091018054835260018101546001600160a01b03169383018490526002015490820181905290925061121e91610e16565b5061122881612abe565b9050611180565b50565b60606105b382611b09565b6060600b6000838152602001908152602001600020805480602002602001604051908101604052809291908181526020016000905b828210156108a45760008481526020908190206040805160608101825260038602909201805483526001808201546001600160a01b031684860152600290910154918301919091529083529092019101611272565b6112cf61195c565b6001600160a01b0381166113345760405162461bcd60e51b815260206004820152602660248201527f4f776e61626c653a206e6577206f776e657220697320746865207a65726f206160448201526564647265737360d01b6064820152608401610727565b61122f816119b6565b4283116113a05760405162461bcd60e51b815260206004820152602b60248201527f5265736572766174696f6e2074696d657374616d70206d75737420626520696e60448201526a207468652066757475726560a81b6064820152608401610727565b600082116113fe5760405162461bcd60e51b815260206004820152602560248201527f546f6c6572616e63652074696d65206d75737420626520677265617465722074604482015264068616e20360dc1b6064820152608401610727565b6000811161145f5760405162461bcd60e51b815260206004820152602860248201527f5265736572766174696f6e2076616c7565206d75737420626520677265617465604482015267072207468616e20360c41b6064820152608401610727565b6001600160a01b0384166114ae5760405162461bcd60e51b8152602060048201526016602482015275496e7365727420612076616c6964206164647265737360501b6044820152606401610727565b60006114b960085490565b90506114c9600880546001019055565b60006114d58486612a24565b90506114e48287878487611c11565b6114ee8683611dcd565b61159e826009600081548110611506576115066129f8565b90600052602060002001805461151b90612a37565b80601f016020809104026020016040519081016040528092919081815260200182805461154790612a37565b80156115945780601f1061156957610100808354040283529160200191611594565b820191906000526020600020905b81548152906001019060200180831161157757829003601f168201915b5050505050611de7565b505050505050565b60006001600160e01b03198216632483248360e11b14806105b357506105b382611eb2565b6000818152600260205260409020546001600160a01b031661122f5760405162461bcd60e51b8152602060048201526018602482015277115490cdcc8c4e881a5b9d985b1a59081d1bdad95b88125160421b6044820152606401610727565b600081815260046020526040902080546001600160a01b0319166001600160a01b038416908117909155819061165f82610b76565b6001600160a01b03167f8c5be1e5ebec7d5bd14f71427d1e84f3dd0314c0f7b2291e5b200ac8c7c3b92560405160405180910390a45050565b6000806116a483610b76565b9050806001600160a01b0316846001600160a01b031614806116eb57506001600160a01b0380821660009081526005602090815260408083209388168352929052205460ff165b8061170f5750836001600160a01b03166117048461068c565b6001600160a01b0316145b949350505050565b826001600160a01b031661172a82610b76565b6001600160a01b0316146117505760405162461bcd60e51b815260040161072790612b0c565b6001600160a01b0382166117b25760405162461bcd60e51b8152602060048201526024808201527f4552433732313a207472616e7366657220746f20746865207a65726f206164646044820152637265737360e01b6064820152608401610727565b826001600160a01b03166117c582610b76565b6001600160a01b0316146117eb5760405162461bcd60e51b815260040161072790612b0c565b600081815260046020908152604080832080546001600160a01b03199081169091556001600160a01b0387811680865260038552838620805460001901905590871680865283862080546001019055868652600290945282852080549092168417909155905184937fddf252ad1be2c89b69c2b068fc378daa952ba7f163c4a11628f55a4df523b3ef91a4505050565b60048301805461ff001916610200179055600980546118a79184916002908110611506576115066129f8565b806001600160a01b03167f8d9f1123a8981d98a55c522cc3546e151e783d36ac86b4006002457d90f8a97d836002426040516118e593929190612b51565b60405180910390a2505050565b60048301805461ff0019166101001790556009805461191e9184916001908110611506576115066129f8565b806001600160a01b03167f30a03041ed7a449393aa7cc4ba9869de14da67712db4676032bf3ca8f02a5734836001426040516118e593929190612b51565b6007546001600160a01b03163314610f6f5760405162461bcd60e51b815260206004820181905260248201527f4f776e61626c653a2063616c6c6572206973206e6f7420746865206f776e65726044820152606401610727565b600780546001600160a01b038381166001600160a01b0319831681179093556040519116919082907f8be0079c531659141344cd1fd0a4f28419497f9722a3daafe3b4186f6b6457e090600090a35050565b816001600160a01b0316836001600160a01b031603611a695760405162461bcd60e51b815260206004820152601960248201527f4552433732313a20617070726f766520746f2063616c6c6572000000000000006044820152606401610727565b6001600160a01b03838116600081815260056020908152604080832094871680845294825291829020805460ff191686151590811790915591519182527f17307eab39ab6107e8899845ad3d59bd9653f200f220920489ca2b5937696c31910160405180910390a3505050565b611ae1848484611717565b611aed84848484611f02565b610d575760405162461bcd60e51b815260040161072790612b73565b6060611b14826115cb565b60008281526006602052604081208054611b2d90612a37565b80601f0160208091040260200160405190810160405280929190818152602001828054611b5990612a37565b8015611ba65780601f10611b7b57610100808354040283529160200191611ba6565b820191906000526020600020905b815481529060010190602001808311611b8957829003601f168201915b505050505090506000611bc460408051602081019091526000815290565b90508051600003611bd6575092915050565b815115611c08578082604051602001611bf0929190612bc5565b60405160208183030381529060405292505050919050565b61170f84612003565b60006040518060c0016040528087815260200185815260200184815260200183815260200160001515815260200160006002811115611c5257611c526124b0565b90526001600160a01b0386166000908152600a60209081526040808320805460018181018355918552938390208551600590950201938455918401519183019190915582015160028083019190915560608301516003830155608083015160048301805491151560ff1983168117825560a0860151959650869593919261ff001990911661ffff199091161790610100908490811115611cf457611cf46124b0565b021790555050506000611d0685611136565b60408051606080820183528882526001600160a01b038a811660208085018281528587018f81526000898152600b8452888120805460018082018355918352918590208951600390930201918255925192810180546001600160a01b0319169390961692909217909455925160029093019290925584518d81529182018b9052938101899052908101879052929350917fd01f867d86932c2cfdf1045c284accdcb8565dd727d22f81bae60d43be7a0ab39060800160405180910390a25050505050505050565b611100828260405180602001604052806000815250612077565b6000828152600260205260409020546001600160a01b0316611e625760405162461bcd60e51b815260206004820152602e60248201527f45524337323155524953746f726167653a2055524920736574206f66206e6f6e60448201526d32bc34b9ba32b73a103a37b5b2b760911b6064820152608401610727565b6000828152600660205260409020611e7a8282612c3a565b506040518281527ff8e1a15aba9398e019f0b49df1a4fde98ee17ae345cb5f6b5e2c27f5033e8ce79060200160405180910390a15050565b60006001600160e01b031982166380ac58cd60e01b1480611ee357506001600160e01b03198216635b5e139f60e01b145b806105b357506301ffc9a760e01b6001600160e01b03198316146105b3565b60006001600160a01b0384163b15611ff857604051630a85bd0160e11b81526001600160a01b0385169063150b7a0290611f46903390899088908890600401612cfa565b6020604051808303816000875af1925050508015611f81575060408051601f3d908101601f19168201909252611f7e91810190612d37565b60015b611fde573d808015611faf576040519150601f19603f3d011682016040523d82523d6000602084013e611fb4565b606091505b508051600003611fd65760405162461bcd60e51b815260040161072790612b73565b805181602001fd5b6001600160e01b031916630a85bd0160e11b14905061170f565b506001949350505050565b606061200e826115cb565b600061202560408051602081019091526000815290565b905060008151116120455760405180602001604052806000815250612070565b8061204f846120aa565b604051602001612060929190612bc5565b6040516020818303038152906040525b9392505050565b612081838361213d565b61208e6000848484611f02565b6107c85760405162461bcd60e51b815260040161072790612b73565b606060006120b7836122c8565b600101905060008167ffffffffffffffff8111156120d7576120d76126e8565b6040519080825280601f01601f191660200182016040528015612101576020820181803683370190505b5090508181016020015b600019016f181899199a1a9b1b9c1cb0b131b232b360811b600a86061a8153600a850494508461210b57509392505050565b6001600160a01b0382166121935760405162461bcd60e51b815260206004820181905260248201527f4552433732313a206d696e7420746f20746865207a65726f20616464726573736044820152606401610727565b6000818152600260205260409020546001600160a01b0316156121f85760405162461bcd60e51b815260206004820152601c60248201527f4552433732313a20746f6b656e20616c7265616479206d696e746564000000006044820152606401610727565b6000818152600260205260409020546001600160a01b03161561225d5760405162461bcd60e51b815260206004820152601c60248201527f4552433732313a20746f6b656e20616c7265616479206d696e746564000000006044820152606401610727565b6001600160a01b038216600081815260036020908152604080832080546001019055848352600290915280822080546001600160a01b0319168417905551839291907fddf252ad1be2c89b69c2b068fc378daa952ba7f163c4a11628f55a4df523b3ef908290a45050565b60008072184f03e93ff9f4daa797ed6e38ed64bf6a1f0160401b83106123075772184f03e93ff9f4daa797ed6e38ed64bf6a1f0160401b830492506040015b6d04ee2d6d415b85acef81000000008310612333576d04ee2d6d415b85acef8100000000830492506020015b662386f26fc10000831061235157662386f26fc10000830492506010015b6305f5e1008310612369576305f5e100830492506008015b612710831061237d57612710830492506004015b6064831061238f576064830492506002015b600a83106105b35760010192915050565b6001600160e01b03198116811461122f57600080fd5b6000602082840312156123c857600080fd5b8135612070816123a0565b6000602082840312156123e557600080fd5b5035919050565b60005b838110156124075781810151838201526020016123ef565b50506000910152565b600081518084526124288160208601602086016123ec565b601f01601f19169290920160200192915050565b6020815260006120706020830184612410565b80356001600160a01b038116811461246657600080fd5b919050565b6000806040838503121561247e57600080fd5b6124878361244f565b946020939093013593505050565b6000602082840312156124a757600080fd5b6120708261244f565b634e487b7160e01b600052602160045260246000fd5b600381106124e457634e487b7160e01b600052602160045260246000fd5b9052565b80518252602081015160208301526040810151604083015260608101516060830152608081015115156080830152600060a082015161252a60a08501826124c6565b50505060c00190565b6020808252825182820181905260009190848201906040850190845b81811015612570576125628385516124e8565b93850193925060010161254f565b50909695505050505050565b60008060006060848603121561259157600080fd5b61259a8461244f565b92506125a86020850161244f565b9150604084013590509250925092565b600080602083850312156125cb57600080fd5b823567ffffffffffffffff808211156125e357600080fd5b818501915085601f8301126125f757600080fd5b81358181111561260657600080fd5b8660208260051b850101111561261b57600080fd5b60209290920196919550909350505050565b6000602080830181845280855180835260408601915060408160051b87010192508387016000805b838110156126ae57888603603f19018552825180518088529088019088880190845b818110156126985761268a8385516124e8565b938b01939250600101612677565b5090975050509386019391860191600101612655565b509398975050505050505050565b600080604083850312156126cf57600080fd5b823591506126df6020840161244f565b90509250929050565b634e487b7160e01b600052604160045260246000fd5b604051601f8201601f1916810167ffffffffffffffff81118282101715612727576127276126e8565b604052919050565b6000602080838503121561274257600080fd5b823567ffffffffffffffff8082111561275a57600080fd5b818501915085601f83011261276e57600080fd5b813581811115612780576127806126e8565b8060051b91506127918483016126fe565b81815291830184019184810190888411156127ab57600080fd5b938501935b838510156127c9578435825293850193908501906127b0565b98975050505050505050565b6000602080830181845280855180835260408601915060408160051b870101925083870160005b8281101561282a57603f19888603018452612818858351612410565b945092850192908501906001016127fc565b5092979650505050505050565b6000806040838503121561284a57600080fd5b6128538361244f565b91506020830135801515811461286857600080fd5b809150509250929050565b6000806000806080858703121561288957600080fd5b6128928561244f565b935060206128a181870161244f565b935060408601359250606086013567ffffffffffffffff808211156128c557600080fd5b818801915088601f8301126128d957600080fd5b8135818111156128eb576128eb6126e8565b6128fd601f8201601f191685016126fe565b9150808252898482850101111561291357600080fd5b808484018584013760008482840101525080935050505092959194509250565b602080825282518282018190526000919060409081850190868401855b8281101561298857815180518552868101516001600160a01b0316878601528501518585015260609093019290850190600101612950565b5091979650505050505050565b600080604083850312156129a857600080fd5b6129b18361244f565b91506126df6020840161244f565b600080600080608085870312156129d557600080fd5b6129de8561244f565b966020860135965060408601359560600135945092505050565b634e487b7160e01b600052603260045260246000fd5b634e487b7160e01b600052601160045260246000fd5b808201808211156105b3576105b3612a0e565b600181811c90821680612a4b57607f821691505b602082108103612a6b57634e487b7160e01b600052602260045260246000fd5b50919050565b6020808252602d908201527f4552433732313a2063616c6c6572206973206e6f7420746f6b656e206f776e6560408201526c1c881bdc88185c1c1c9bdd9959609a1b606082015260800190565b600060018201612ad057612ad0612a0e565b5060010190565b600082612af457634e487b7160e01b600052601260045260246000fd5b500690565b818103818111156105b3576105b3612a0e565b60208082526025908201527f4552433732313a207472616e736665722066726f6d20696e636f72726563742060408201526437bbb732b960d91b606082015260800190565b83815260608101612b6560208301856124c6565b826040830152949350505050565b60208082526032908201527f4552433732313a207472616e7366657220746f206e6f6e20455243373231526560408201527131b2b4bb32b91034b6b83632b6b2b73a32b960711b606082015260800190565b60008351612bd78184602088016123ec565b835190830190612beb8183602088016123ec565b01949350505050565b601f8211156107c857600081815260208120601f850160051c81016020861015612c1b5750805b601f850160051c820191505b8181101561159e57828155600101612c27565b815167ffffffffffffffff811115612c5457612c546126e8565b612c6881612c628454612a37565b84612bf4565b602080601f831160018114612c9d5760008415612c855750858301515b600019600386901b1c1916600185901b17855561159e565b600085815260208120601f198616915b82811015612ccc57888601518255948401946001909101908401612cad565b5085821015612cea5787850151600019600388901b60f8161c191681555b5050505050600190811b01905550565b6001600160a01b0385811682528416602082015260408101839052608060608201819052600090612d2d90830184612410565b9695505050505050565b600060208284031215612d4957600080fd5b8151612070816123a056fea2646970667358221220a6e3fe6482417b1872105217e337406b050c7584e2c91847de83f8e525707c3664736f6c6343000814003368747470733a2f2f62616679626569617a7068716a6d366761706c7874677870746a79686b3371617532773576673273696a7770696a74713667746d6b696b687a78652e697066732e7733732e6c696e6b2f52657374617572616e745265736572766174696f6e2e6a736f6e68747470733a2f2f6261667962656961623369646f68646f6b6768647a6d6a61706f7965653368616f796c68697561656b70663673346776706d36647478696f616e712e697066732e7733732e6c696e6b2f52657374617572616e74526573657276616e74696f6e43616e63656c65642e6a736f6e68747470733a2f2f6261667962656961666f6d6c6b3565626574753464716a6d787a32717032787a653678636769723376336e6432786c7a336432686a6365327863752e697066732e7733732e6c696e6b2f52657374617572616e5265736572766174696f6e436865636b6564496e2e6a736f6e",
  "devdoc": {
    "author": "@YanVictorSN",
    "events": {
      "Approval(address,address,uint256)": {
        "details": "Emitted when `owner` enables `approved` to manage the `tokenId` token."
      },
      "ApprovalForAll(address,address,bool)": {
        "details": "Emitted when `owner` enables or disables (`approved`) `operator` to manage all of its assets."
      },
      "BatchMetadataUpdate(uint256,uint256)": {
        "details": "This event emits when the metadata of a range of tokens is changed. So that the third-party platforms such as NFT market could timely update the images and related attributes of the NFTs."
      },
      "MetadataUpdate(uint256)": {
        "details": "This event emits when the metadata of a token is changed. So that the third-party platforms such as NFT market could timely update the images and related attributes of the NFT."
      },
      "Transfer(address,address,uint256)": {
        "details": "Emitted when `tokenId` token is transferred from `from` to `to`."
      }
    },
    "kind": "dev",
    "methods": {
      "approve(address,uint256)": {
        "details": "See {IERC721-approve}."
      },
      "balanceOf(address)": {
        "details": "See {IERC721-balanceOf}."
      },
      "checkDailyReservation(uint256,address)": {
        "params": {
          "tokenId": "The identifier of the NFT",
          "userAddress": "The address to be checked"
        }
      },
      "depositReservationValue(uint256,address)": {
        "params": {
          "reservationId": "The identifier of the reservation",
          "userAddress": "The address of the user that rented the reservation"
        }
      },
      "getApproved(uint256)": {
        "details": "See {IERC721-getApproved}."
      },
      "getReservationTokensByAddresses(address[])": {
        "params": {
          "addresses": "The array of addresses to query"
        },
        "returns": {
          "_0": "An array of reservation tokens corresponding to the addresses"
        }
      },
      "getReservationsByDay(uint256)": {
        "params": {
          "_dayTimestamp": "The timestamp of the day"
        },
        "returns": {
          "_0": "The daily reservations"
        }
      },
      "getStartOfDayTimestamp(uint256)": {
        "params": {
          "_reservationTimestamp": "The timestamp of the reservation"
        },
        "returns": {
          "_0": "The timestamp of start of the day"
        }
      },
      "getTokenData(address)": {
        "params": {
          "_userAddress": "The address of the user"
        }
      },
      "isApprovedForAll(address,address)": {
        "details": "See {IERC721-isApprovedForAll}."
      },
      "name()": {
        "details": "See {IERC721Metadata-name}."
      },
      "owner()": {
        "details": "Returns the address of the current owner."
      },
      "ownerOf(uint256)": {
        "details": "See {IERC721-ownerOf}."
      },
      "refundForNotCheckIn(uint256,address)": {
        "params": {
          "reservationId": "The identifier of the reservation",
          "userAddress": "The address of the user that rented the reservation"
        }
      },
      "renounceOwnership()": {
        "details": "Leaves the contract without owner. It will not be possible to call `onlyOwner` functions. Can only be called by the current owner. NOTE: Renouncing ownership will leave the contract without an owner, thereby disabling any functionality that is only available to the owner."
      },
      "safeMint(address,uint256,uint256,uint256)": {
        "params": {
          "reservationTimestamp": "The timestamp of the reservation",
          "reservationToleranceTime": "The tolerance time of the reservation",
          "reservationValue": "The value of the reservation"
        }
      },
      "safeTransferFrom(address,address,uint256)": {
        "details": "See {IERC721-safeTransferFrom}."
      },
      "safeTransferFrom(address,address,uint256,bytes)": {
        "details": "See {IERC721-safeTransferFrom}."
      },
      "setApprovalForAll(address,bool)": {
        "details": "See {IERC721-setApprovalForAll}."
      },
      "supportsInterface(bytes4)": {
        "params": {
          "interfaceId": "The interface identifier"
        },
        "returns": {
          "_0": "True if the interface is supported, false otherwise"
        }
      },
      "symbol()": {
        "details": "See {IERC721Metadata-symbol}."
      },
      "tokenURI(uint256)": {
        "params": {
          "tokenId": "The identifier of the NFT"
        },
        "returns": {
          "_0": "The metadata of the NFT"
        }
      },
      "transferFrom(address,address,uint256)": {
        "details": "See {IERC721-transferFrom}."
      },
      "transferOwnership(address)": {
        "details": "Transfers ownership of the contract to a new account (`newOwner`). Can only be called by the current owner."
      }
    },
    "title": "Reservation NFT's",
    "version": 1
  },
  "userdoc": {
    "events": {
      "ReservationDataAdded(uint256,address,uint256,uint256,uint256)": {
        "notice": "Events///"
      }
    },
    "kind": "user",
    "methods": {
      "checkAllDailyReservation()": {
        "notice": "This function is used to check all daily reservations"
      },
      "checkDailyReservation(uint256,address)": {
        "notice": "This function is used to check the daily reservations and modifies the status of each one"
      },
      "constructor": {
        "notice": "Constructor///"
      },
      "depositReservationValue(uint256,address)": {
        "notice": "This function is used to deposit the reservation value in the contract"
      },
      "getReservationTokensByAddresses(address[])": {
        "notice": "This function returns an array of reservation tokens for an array of addresses"
      },
      "getReservationsByDay(uint256)": {
        "notice": "This function is used to get the daily reservations"
      },
      "getStartOfDayTimestamp(uint256)": {
        "notice": "This function is used to get the timestamp of start of the day"
      },
      "getTokenData(address)": {
        "notice": "This function is used to get the data of a token"
      },
      "refundForNotCheckIn(uint256,address)": {
        "notice": "This function is used to refund the reservation value in the contract"
      },
      "supportsInterface(bytes4)": {
        "notice": "This function is used to check if a contract supports an interface"
      },
      "tokenURI(uint256)": {
        "notice": "This function get the metadata of a NFT"
      }
    },
    "notice": "You can use this contract to mint and set NFT's metadata for reservations.",
    "version": 1
  },
  "storageLayout": {
    "storage": [
      {
        "astId": 231,
        "contract": "contracts/Reservation.sol:Reservation",
        "label": "_name",
        "offset": 0,
        "slot": "0",
        "type": "t_string_storage"
      },
      {
        "astId": 233,
        "contract": "contracts/Reservation.sol:Reservation",
        "label": "_symbol",
        "offset": 0,
        "slot": "1",
        "type": "t_string_storage"
      },
      {
        "astId": 237,
        "contract": "contracts/Reservation.sol:Reservation",
        "label": "_owners",
        "offset": 0,
        "slot": "2",
        "type": "t_mapping(t_uint256,t_address)"
      },
      {
        "astId": 241,
        "contract": "contracts/Reservation.sol:Reservation",
        "label": "_balances",
        "offset": 0,
        "slot": "3",
        "type": "t_mapping(t_address,t_uint256)"
      },
      {
        "astId": 245,
        "contract": "contracts/Reservation.sol:Reservation",
        "label": "_tokenApprovals",
        "offset": 0,
        "slot": "4",
        "type": "t_mapping(t_uint256,t_address)"
      },
      {
        "astId": 251,
        "contract": "contracts/Reservation.sol:Reservation",
        "label": "_operatorApprovals",
        "offset": 0,
        "slot": "5",
        "type": "t_mapping(t_address,t_mapping(t_address,t_bool))"
      },
      {
        "astId": 1282,
        "contract": "contracts/Reservation.sol:Reservation",
        "label": "_tokenURIs",
        "offset": 0,
        "slot": "6",
        "type": "t_mapping(t_uint256,t_string_storage)"
      },
      {
        "astId": 7,
        "contract": "contracts/Reservation.sol:Reservation",
        "label": "_owner",
        "offset": 0,
        "slot": "7",
        "type": "t_address"
      },
      {
        "astId": 3785,
        "contract": "contracts/Reservation.sol:Reservation",
        "label": "tokenIdCounter",
        "offset": 0,
        "slot": "8",
        "type": "t_struct(Counter)1815_storage"
      },
      {
        "astId": 3792,
        "contract": "contracts/Reservation.sol:Reservation",
        "label": "IpfsImage",
        "offset": 0,
        "slot": "9",
        "type": "t_array(t_string_storage)dyn_storage"
      },
      {
        "astId": 3798,
        "contract": "contracts/Reservation.sol:Reservation",
        "label": "reservationToken",
        "offset": 0,
        "slot": "10",
        "type": "t_mapping(t_address,t_array(t_struct(ReservationData)3770_storage)dyn_storage)"
      },
      {
        "astId": 3804,
        "contract": "contracts/Reservation.sol:Reservation",
        "label": "reservationsByDay",
        "offset": 0,
        "slot": "11",
        "type": "t_mapping(t_uint256,t_array(t_struct(ReservationByDay)3778_storage)dyn_storage)"
      }
    ],
    "types": {
      "t_address": {
        "encoding": "inplace",
        "label": "address",
        "numberOfBytes": "20"
      },
      "t_array(t_string_storage)dyn_storage": {
        "base": "t_string_storage",
        "encoding": "dynamic_array",
        "label": "string[]",
        "numberOfBytes": "32"
      },
      "t_array(t_struct(ReservationByDay)3778_storage)dyn_storage": {
        "base": "t_struct(ReservationByDay)3778_storage",
        "encoding": "dynamic_array",
        "label": "struct Reservation.ReservationByDay[]",
        "numberOfBytes": "32"
      },
      "t_array(t_struct(ReservationData)3770_storage)dyn_storage": {
        "base": "t_struct(ReservationData)3770_storage",
        "encoding": "dynamic_array",
        "label": "struct Reservation.ReservationData[]",
        "numberOfBytes": "32"
      },
      "t_bool": {
        "encoding": "inplace",
        "label": "bool",
        "numberOfBytes": "1"
      },
      "t_enum(Status)3755": {
        "encoding": "inplace",
        "label": "enum Reservation.Status",
        "numberOfBytes": "1"
      },
      "t_mapping(t_address,t_array(t_struct(ReservationData)3770_storage)dyn_storage)": {
        "encoding": "mapping",
        "key": "t_address",
        "label": "mapping(address => struct Reservation.ReservationData[])",
        "numberOfBytes": "32",
        "value": "t_array(t_struct(ReservationData)3770_storage)dyn_storage"
      },
      "t_mapping(t_address,t_bool)": {
        "encoding": "mapping",
        "key": "t_address",
        "label": "mapping(address => bool)",
        "numberOfBytes": "32",
        "value": "t_bool"
      },
      "t_mapping(t_address,t_mapping(t_address,t_bool))": {
        "encoding": "mapping",
        "key": "t_address",
        "label": "mapping(address => mapping(address => bool))",
        "numberOfBytes": "32",
        "value": "t_mapping(t_address,t_bool)"
      },
      "t_mapping(t_address,t_uint256)": {
        "encoding": "mapping",
        "key": "t_address",
        "label": "mapping(address => uint256)",
        "numberOfBytes": "32",
        "value": "t_uint256"
      },
      "t_mapping(t_uint256,t_address)": {
        "encoding": "mapping",
        "key": "t_uint256",
        "label": "mapping(uint256 => address)",
        "numberOfBytes": "32",
        "value": "t_address"
      },
      "t_mapping(t_uint256,t_array(t_struct(ReservationByDay)3778_storage)dyn_storage)": {
        "encoding": "mapping",
        "key": "t_uint256",
        "label": "mapping(uint256 => struct Reservation.ReservationByDay[])",
        "numberOfBytes": "32",
        "value": "t_array(t_struct(ReservationByDay)3778_storage)dyn_storage"
      },
      "t_mapping(t_uint256,t_string_storage)": {
        "encoding": "mapping",
        "key": "t_uint256",
        "label": "mapping(uint256 => string)",
        "numberOfBytes": "32",
        "value": "t_string_storage"
      },
      "t_string_storage": {
        "encoding": "bytes",
        "label": "string",
        "numberOfBytes": "32"
      },
      "t_struct(Counter)1815_storage": {
        "encoding": "inplace",
        "label": "struct Counters.Counter",
        "members": [
          {
            "astId": 1814,
            "contract": "contracts/Reservation.sol:Reservation",
            "label": "_value",
            "offset": 0,
            "slot": "0",
            "type": "t_uint256"
          }
        ],
        "numberOfBytes": "32"
      },
      "t_struct(ReservationByDay)3778_storage": {
        "encoding": "inplace",
        "label": "struct Reservation.ReservationByDay",
        "members": [
          {
            "astId": 3773,
            "contract": "contracts/Reservation.sol:Reservation",
            "label": "reservationTimestamp",
            "offset": 0,
            "slot": "0",
            "type": "t_uint256"
          },
          {
            "astId": 3775,
            "contract": "contracts/Reservation.sol:Reservation",
            "label": "userAddress",
            "offset": 0,
            "slot": "1",
            "type": "t_address"
          },
          {
            "astId": 3777,
            "contract": "contracts/Reservation.sol:Reservation",
            "label": "reservationId",
            "offset": 0,
            "slot": "2",
            "type": "t_uint256"
          }
        ],
        "numberOfBytes": "96"
      },
      "t_struct(ReservationData)3770_storage": {
        "encoding": "inplace",
        "label": "struct Reservation.ReservationData",
        "members": [
          {
            "astId": 3758,
            "contract": "contracts/Reservation.sol:Reservation",
            "label": "reservationId",
            "offset": 0,
            "slot": "0",
            "type": "t_uint256"
          },
          {
            "astId": 3760,
            "contract": "contracts/Reservation.sol:Reservation",
            "label": "reservationTimestamp",
            "offset": 0,
            "slot": "1",
            "type": "t_uint256"
          },
          {
            "astId": 3762,
            "contract": "contracts/Reservation.sol:Reservation",
            "label": "toleranceTime",
            "offset": 0,
            "slot": "2",
            "type": "t_uint256"
          },
          {
            "astId": 3764,
            "contract": "contracts/Reservation.sol:Reservation",
            "label": "reservationValue",
            "offset": 0,
            "slot": "3",
            "type": "t_uint256"
          },
          {
            "astId": 3766,
            "contract": "contracts/Reservation.sol:Reservation",
            "label": "reservationPayment",
            "offset": 0,
            "slot": "4",
            "type": "t_bool"
          },
          {
            "astId": 3769,
            "contract": "contracts/Reservation.sol:Reservation",
            "label": "status",
            "offset": 1,
            "slot": "4",
            "type": "t_enum(Status)3755"
          }
        ],
        "numberOfBytes": "160"
      },
      "t_uint256": {
        "encoding": "inplace",
        "label": "uint256",
        "numberOfBytes": "32"
      }
    }
  }
}